:020000040800F2
:1000000000070020CD010008AB0F0008030F000817
:10001000A90F0008D5020008C71100080000000061
:100020000000000000000000000000006111000856
:10003000D702000800000000AD0F0008631100089F
:10004000E7010008E7010008E7010008E7010008F0
:10005000E7010008E7010008E7010008E7010008E0
:10006000E7010008E7010008E7010008E7010008D0
:10007000E7010008E7010008E7010008E7010008C0
:10008000E7010008E7010008E7010008E7010008B0
:10009000E7010008E7010008E7010008E7010008A0
:1000A000E7010008E7010008E7010008E701000890
:1000B000E7010008E7010008E7010008E701000880
:1000C000E7010008E7010008E7010008E701000870
:1000D000B10F0008E7010008E7010008E701000888
:1000E000E7010008E7010008E7010008E701000850
:1000F000E7010008E7010008E7010008E701000840
:10010000E7010008E7010008E7010008E70100082F
:10011000E7010008E7010008E7010008E70100081F
:10012000E7010008E7010008E7010008E70100080F
:1001300000F002F800F03AF80AA090E8000C8244BF
:100140008344AAF10107DA4501D100F02FF8AFF29C
:10015000090EBAE80F0013F0010F18BFFB1A43F0A5
:10016000010318471C5A07003C5A0700103A24BFE5
:1001700078C878C1FAD8520724BF30C830C144BF0C
:1001800004680C607047000000230024002500264E
:10019000103A28BF78C1FBD8520728BF30C148BFEA
:1001A0000B6070471FB51FBD10B510BD00F05DF8A6
:1001B0001146FFF7F7FF01F03DFA00F07BF803B4BA
:1001C000FFF7F2FF03BC00F07FF80000094880470A
:1001D00009480047FEE7FEE7FEE7FEE7FEE7FEE729
:1001E000FEE7FEE7FEE7FEE704480549054A064B41
:1001F00070470000C511000831010008000100200F
:100200000007002000030020000300204FF0000240
:1002100000B5134694469646203922BFA0E80C50FC
:10022000A0E80C50B1F12001BFF4F7AF090728BFD7
:10023000A0E80C5048BF0CC05DF804EB890028BF53
:1002400040F8042B08BF704748BF20F8022B11F07C
:10025000804F18BF00F8012B7047704770477047F8
:1002600000487047A000002070477546FFF7F8FF70
:10027000AE4605006946534620F00700854618B093
:1002800020B5FFF7B1FFBDE820404FF000064FF06A
:1002900000074FF000084FF0000B21F00701AC46BB
:1002A000ACE8C009ACE8C009ACE8C009ACE8C009DA
:1002B0008D46704710B50446AFF300802046BDE878
:1002C0001040FFF77CBF000001491820ABBEFEE7DD
:1002D00026000200FEE7704772B6FEE72DE9F05FE8
:1002E00090F821100024022903D004218163012405
:1002F00085E001680A6822F00E020A6001680A6857
:1003000022F001020A603F4E3E4FB215DFF8F4C002
:10031000DFF8F090DFF8ECA0DFF8E8B0DFF8E4E019
:100320000168783F13011502ACF1640CA9F1500982
:10033000AAF13C0AABF1280BAEF1140E4FF4801871
:10034000B14227D9B9420ED0614512D049451DD0DE
:10035000514518D0594518D0714501D1424615E094
:10036000294EB14201D1012210E0274E1436B1428C
:1003700001D110220AE0244E2836B14206D0224A8A
:100380003C32914201D11A4600E02A461E49091F1B
:100390000A602BE0B94213D0614517D0494522D0FD
:1003A00051451DD059451DD0714501D142461AE035
:1003B000B14202D14FF0807215E0134EB14201D12B
:1003C000012210E0104E1436B14201D110220AE091
:1003D0000D4E2836B14206D00B4A3C32914201D133
:1003E0001A4600E02A46074980394A60012180F810
:1003F0002110002180F82010416B01B18847204670
:10040000BDE8F09F800002400804024070B5044639
:1004100000F010F90546601C02D00448007804443E
:1004200000F008F9401BA042FAD370BD0000002084
:100430002DE9F84FDFF8C891002409F1040A0AF108
:10044000040B23460F270BF1040ED1E00125A54034
:1004500006EA0502AA4276D1DFF8A8C14E68A6EBEB
:100460000C0866452BD00DDC032E34D005DC36B3EA
:10047000012E19D0022E2FD11BE0112E16D0122ED4
:100480002AD119E0B8F5881F19D006DCB8F5803FED
:1004900015D0B8F5801F1FD111E0B8F5001F0ED0A0
:1004A000B8F5041F18D10AE0CB6815E0CB681B1D16
:1004B00012E0CB6808330FE0CB680C330CE08B689C
:1004C0002BB1012B4FF0080303D0456104E0042356
:1004D00002E0056100E00023FF2A01D8064601E0A2
:1004E00000F104064FEA840501D9A5F12005D6F8EC
:1004F000008007FA05FC28EA0C0803FA05F548EA2B
:100500000508C6F800804D68ED0070D53E4DAE6917
:1005100046F00106AE61AD6924F0030605F0010561
:1005200000953A4D06EB050CDCF80850A607360F8F
:1005300007FA06F825EA0805DFF8D480404503D11C
:100540004FF0000825E052E0DFF8C880404502D1B6
:100550004FF001081DE0DFF8C080404502D14FF0A8
:10056000020816E0DFF8B480404502D14FF00308DE
:100570000FE0DFF8AC80404502D14FF0040808E0FE
:10058000DFF8A080404502D14FF0050801E04FF0B0
:10059000060808FA06F848EA0508CCF808804D680D
:1005A000D9F80060ED034D4601D5164300E09643AF
:1005B0002E604D68DAF80060AD03554601D516434C
:1005C00000E096432E604D68DBF80060ED025D466A
:1005D00001D5164300E096432E604D68DEF80060BA
:1005E000AD02754601D5164300E096432E60641CAB
:1005F0000A681646E2407FF429AFBDE8F88F000094
:1006000000040140000011100010024000000140F1
:1006100000080140000C014000100140001401409E
:1006200000180140001C01400AB101617047090433
:10063000FBE70000014880687047000000000020D0
:1006400002488168027811448160704700000020F0
:10065000074810B5016841F010010160032000F067
:1006600075F80F2000F006F800F024F8002010BD07
:100670000020024070B50D4D04464FF47A71287881
:10068000B1FBF0F00A490968B1FBF0F000F025FC7D
:1006900048B9102C07D200222146501E00F036F82F
:1006A00000206C6070BD012070BD000000000020C3
:1006B0000C0000200C4808B5816941F001018161FE
:1006C000816901F001010091C16941F08051C1616E
:1006D000C06900F0805000900448416821F0E0615A
:1006E00041F08061416008BD0010024000000140FF
:1006F000002809DB00F01F02012191404009800021
:1007000000F1E020C0F8001170470000F0B40E4B7B
:100710001B680C46C3F30223C3F10705042D00D95F
:100720000425191D072901D2002300E0DB1E012644
:1007300006FA05F1491E214099409E40761E16405A
:100740003143F0BC00F040BD0CED00E0064900F084
:10075000070208684FF6FF03184040EA0220034AE8
:1007600010430860704700000CED00E00000FA053F
:100770002DE9F0470F46050061D0434E306800F088
:100780000700B84209D2306820F0070038433060D3
:10079000306800F00700B84251D128683B4C81070F
:1007A00012D5400703D5606840F4E06060602878A7
:1007B000000703D5606840F4605060606068A96815
:1007C00020F0F000084360602878C00728D06868EF
:1007D000012810D02168022810D0890700292EDABC
:1007E000616821F0030101436160FFF723FF804648
:1007F00041F288390DE021688903EFE78901EDE7CF
:10080000FFF718FFA0EB0801494502D90320BDE816
:10081000F0876068696800F00C00B0EB810FEFD1E1
:10082000306800F00700B8420BD9306820F00700AC
:1008300038433060306800F00700B84201D0012032
:10084000E5E72878400705D56068E96820F4E060AE
:10085000084360602878000706D56068296920F49D
:10086000605040EAC100606000F018F86168084A12
:10087000C1F30311515CC84006490860064800688E
:10088000FFF7F8FE0020C2E70020024000100240FF
:10089000941E07080C0000200400002012A185B05F
:1008A0000FC98DE80F0014A0144A00680490516825
:1008B000134801F00C03042B10D0082B0ED1C1F308
:1008C0008343C9031DF803000AD5516804AAC1F384
:1008D0004041515C0A4A5043B0FBF1F005B070470B
:1008E00008494843FAE7000002030405060708091F
:1008F0000A0B0C0D0E0F1010010200000010024038
:1009000000127A0000093D002DE9F84F040070D074
:100910002078C04DC00749D06868C0F38100012825
:1009200007D06868C0F38100022809D16868C00355
:1009300006D52868800339D560680028E7D035E0FF
:100940006068B0F5803F0BD010B1B0F5A02F11D08A
:10095000286820F480302860286820F4802002E095
:10096000286840F480302860606890B1FFF762FE2C
:1009700006460AE0286840F480202860F0E700BFBF
:10098000FFF758FE801B642873D828688003F7D5CA
:100990000CE0FFF74FFE064605E000BFFFF74AFEFA
:1009A000801B6428F0D828688003F7D420789A4EFA
:1009B00080074FF001094FF0000839D5686810F042
:1009C0000C0F07D06868C0F38100022809D168685D
:1009D000C00306D42868800714D52069012808D1EF
:1009E00010E02069B0B1C6F80090FFF723FE07467B
:1009F00005E00AE1FFF71EFEC01B0228C4D82868E4
:100A00008007F7D52868616920F0F80040EAC10046
:100A100028600DE0C6F80080FFF70CFE074604E0F2
:100A2000FFF708FEC01B022823D828688007F7D4E8
:100A3000207800072CD57948A169D9B1C0F8009079
:100A4000FFF7F8FD074604E0FFF7F4FDC01B02289E
:100A50000FD8686A8007F7D571484FF4FA510068DB
:100A6000B0FBF1F0009000BF0098411E0091FAD257
:100A70000EE080E0C0F80080FFF7DCFD074604E0F0
:100A8000FFF7D8FDC01B022875D8686A8007F7D425
:100A90002078400760D5E8690027C00008D4E869DD
:100AA00040F08050E861E869012700F08050009034
:100AB0005C480168C90513D40168834641F480711C
:100AC0000160FFF7B7FD824606E000BFFFF7B2FD09
:100AD000A0EB0A0064284ED8DBF80000C005F5D56D
:100AE000E06801280AD008B1052813D0286A20F050
:100AF00001002862286A20F0040002E0286A40F021
:100B000001002862E06841F2883B98B1FFF792FD4E
:100B100082460BE0286A40F004002862EEE700BF3E
:100B2000FFF788FDA0EB0A0159455AD8286A8007CB
:100B3000F6D50CE0FFF77EFD824605E0FFF77AFD73
:100B4000A0EB0A0159454CD8286A8007F6D41FB19A
:100B5000E86920F08050E861E06988B36968C1F312
:100B60008101022944D00228C6F8608004D0FFF732
:100B700061FD044638E034E0FFF75CFD074604E021
:100B8000FFF758FDC01B02282BD828688001F7D436
:100B9000206AB0F5803F05D16868A16820F4003074
:100BA00008436860D4E908010843696821F47411B6
:100BB00008436860C6F86090FFF73CFD044606E015
:100BC00025E000BFFFF736FD001B022809D8286882
:100BD0008001F7D51BE000BFFFF72CFD001B0228AA
:100BE00002D90320BDE8F88F28688001F4D40EE014
:100BF0000128F7D06868226A00F48031914204D15C
:100C0000616A00F47010884201D00120EAE70020F8
:100C1000E8E7000000100240000042428004424227
:100C20000C000020007000407047000038B50446FA
:100C3000006842688168C9434B0606D5CB0704D1DA
:100C4000D3435B0601D4216C05E08B0708D4D34362
:100C50001B0605D4616C01B02046BDE83040084752
:100C60008B0601D54B0646D4D3439B0643D44B0693
:100C70000AD494F85130032B3ED0636D43F0040343
:100C80006365C36883680093890609D4616D41F088
:100C90000101616581680091016821F040010160F6
:100CA000606D002827D02068416821F0E001416094
:100CB000012084F85100900722D02068416821F07B
:100CC00003014160104DE06C40B14563E06CFFF7FB
:100CD00005FB18B1606D40F040006065A06C002815
:100CE00009D04563A06CFFF7F9FA002803D0606DC6
:100CF00040F04000606538BDC1688068009038BD34
:100D00002046FFF791FF38BD3910000870B5040088
:100D100009D0606A002540B125616561A56294F83B
:100D2000510040B10CE0012070BD6068B0F5827FD9
:100D3000F4D0E561F2E784F85050204600F040F826
:100D4000022084F851002068016821F04001016010
:100D5000A088218900F4827001F404410843A1892C
:100D600001F400610843217C01F002010843217D68
:100D700001F001010843218B01F400710843217F38
:100D800001F03801084394F8201001F08001084375
:100D9000218D01F40051084321680860A0690421F5
:100DA00001EA1040216848602068C16921F40061AF
:100DB000C1616565012084F85100002070BD00000C
:100DC00030B585B000240094019402940394006827
:100DD000194988422DD11948C16941F48041C16146
:100DE000C16901F480410491816941F00801816188
:100DF0008069134D00F0080004904FF420400090EB
:100E0000022001900320039069462846FFF710FB5B
:100E10004FF48040CDE90004694628460294FFF76C
:100E200007FB002211462420FFF770FC2420FFF767
:100E30005FFC05B030BD00000038004000100240EB
:100E4000000C014030B590F850300024012B0BD03D
:100E5000012380F85030002341B13AB190F851504D
:100E6000012D05D002242FE0022030BD01242BE00B
:100E7000032580F85150436501638286C2868363EF
:100E80008387C3870364C16809B1114900E0114930
:100E900041648168B1F5004F09D101680A6822F008
:100EA00040020A6001680A6842F480420A600168F0
:100EB0004A6842F0A0024A6001680A68520603D4F8
:100EC0000A6842F040020A6080F85030204630BD87
:100ED0006910000889100008704710B5401EB0F175
:100EE000807F01D3012010BD4FF0E02460610F210D
:100EF000601700F069F90020A06107202061002040
:100F000010BDFEE770B586B000241448009401942B
:100F100002940394816941F020018161816901F0AB
:100F200020010491816941F00801816180690C4EC2
:100F300000F008004FF4E0550490002229463046A6
:100F4000FFF772FB01200095CDE901040220039018
:100F500069463046FFF76CFA06B070BD00100240DB
:100F6000000C01400F4810B50D4901604FF482712B
:100F7000416000218160C1604FF400720161C0E9ED
:100F80000512C1610162416281620A21C162FFF7FB
:100F9000BDFE002803D0BDE81040FFF79DB910BD8D
:100FA0000038004048000020FEE7FEE770470000E0
:100FB0000148FFF73BBE00004800002038B504465A
:100FC0001C4845F6C0510068B0FBF1F0642148436D
:100FD0000090FFF72FFB024620680099A1B1491E3F
:100FE000009181688907F8D5416821F0A00141602E
:100FF0006421204600F028F818B1606D40F0200010
:101000006065A06828B108E0616D41F0200161656C
:10101000EAE72068C16880680090012084F85100E8
:10102000606D0028204602D0FFF7FEFD38BDFFF7B7
:1010300053FF38BD0C00002010B5406A0021C18765
:10104000C186FFF7F1FD10BD38B50B46009204468E
:101050000022802100F028F8002804D0606D40F0C4
:1010600020006065032038BD016B02680988D160EB
:10107000016B891C0163C18E491EC186C18E002986
:1010800001D1FFF79BBF7047016B026809781173AC
:10109000016B491C0163C18E491EC186C18E0029A6
:1010A00001D1FFF78BBF70472DE9F8431E469146EB
:1010B00088460446089DFFF7BDFA401B351AFFF726
:1010C000B9FA074625480068C0F3CB30684338E0DA
:1010D000701C37D0FFF7AEFAC01BA84203D215B17F
:1010E000009860B32CE02068416821F0E001416085
:1010F0006068B0F5827F0BD1A068B0F5004F02D0D8
:10110000B0F5806F04D12068016821F040010160D2
:10111000A06AB0F5005F09D12068016821F4005190
:1011200001602068016841F400510160012084F8E9
:101130005100002084F850000320BDE8F88300250A
:10114000401E00902068816838EA010004D0002128
:101150004945BDD10020F0E70121F9E70C0000204E
:101160007047FFF76DBA30B58FB028216846FFF79A
:101170004DF814210AA8FFF749F801210804CDE928
:1011800000100024029402250491CDE907504FF489
:10119000E01009906846FFF7B7FB08B172B6FEE7AA
:1011A0000F20CDE90A054FF48060CDE90C40022103
:1011B0000AA80E94FFF7DCFA002801D072B6FEE709
:1011C0000FB030BD7047FEE70907090E002804DBA9
:1011D00000F1E02080F80014704700F00F0000F1EB
:1011E000E02080F8141D7047104808211422C180A7
:1011F000052181800E480C21C180072181800D4886
:101200001021C1800B2181800B49CA800E228A8067
:101210000A491822CA8011228A80094900224A807C
:101220004FF4FC620A804860704700001000002004
:10123000180000202000002028000020300000209E
:101240004000002001B500224FF400610448FFF780
:10125000EBF9012269460348FFF7F4FD08BD0000E1
:10126000000C014048000020F8B507461C46154612
:101270000E462A20FFF7E6FF380A8DF800008DF8A9
:101280000170280A8DF802008DF803500421684689
:1012900000F016F82B20FFF7D5FF300A8DF800007C
:1012A0008DF80160200A8DF802008DF803400421BA
:1012B000684600F005F8BDE8F8402C20FFF7C2BFF3
:1012C0002DE9F0410C4606460122D1020B48FFF7FA
:1012D000ABF94FF400470CE0BC4201D9384600E0BE
:1012E000204685B22A4631460548FFF7ABFD2E441D
:1012F000641B002CF0D1BDE8F0810000000C01401F
:10130000480000202DE9F34F85B000224FF48051B2
:10131000A548FFF789F900F04BF90120FFF792FF8C
:101320004FF47A70FFF772F839208DF800002C2006
:101330008DF8010000248DF8024034208DF8030060
:1013400002208DF80400CB20FFF77CFF05216846C2
:10135000FFF7B6FF8DF80040C1208DF80100302066
:101360008DF80200CF20FFF76DFF03216846FFF7DD
:10137000A7FF85208DF800008DF8014078208DF8BA
:101380000200E820FFF75EFF03216846FFF798FFA1
:101390008DF800408DF80140EA20FFF753FF02214D
:1013A0006846FFF78DFF64208DF8000003258DF857
:1013B000015012208DF8020081208DF80300ED20ED
:1013C000FFF740FF04216846FFF77AFF20208DF8E1
:1013D0000000F720FFF736FF01216846FFF770FF96
:1013E00010268DF80060C020FFF72CFF0121684611
:1013F000FFF766FF8DF80060C120FFF723FF012192
:101400006846FFF75DFF3E208DF8000028208DF82C
:101410000100C520FFF716FF02216846FFF750FFC5
:1014200086208DF80000C720FFF70CFF01216846D9
:10143000FFF746FF48278DF800703620FFF702FFC0
:1014400001216846FFF73CFF55208DF800003A2047
:10145000FFF7F8FE01216846FFF732FF8DF80040E4
:1014600018208DF80100B120FFF7ECFE022168463C
:10147000FFF726FF4FF008088DF8008082208DF8D6
:10148000010027208DF80200B620FFF7DBFE0321C4
:101490006846FFF715FF8DF80040F220FFF7D2FEF7
:1014A00001216846FFF70CFF01208DF8000026207F
:1014B000FFF7C8FE01216846FFF702FF4FF00F0952
:1014C0008DF800904FF0310A8DF801A02B208DF897
:1014D00002004FF00E0B0C208DF803008DF804B0C5
:1014E0008DF805804E208DF80600F1208DF807005C
:1014F00037208DF8080007208DF809008DF80CB012
:1015000009208DF80D008DF80A608DF80B508DF8CC
:101510000E40E020FFF796FE0F216846FFF7D0FE51
:101520008DF800408DF801B014208DF802001120D4
:101530008DF8040007208DF805008DF806A0C12065
:101540008DF808708DF807008DF809808DF80A90E5
:101550000C208DF80B008DF80CA036208DF80D00B6
:101560008DF803508DF80E90E120FFF76BFE0F21F0
:101570006846FFF7A5FE1120FFF764FE7820FEF70E
:1015800045FF8DF800702920FFF75CFE01216846B9
:10159000FFF796FE05480599418006998180FFF77F
:1015A00023FE07B0BDE8F08F000C0140380000209A
:1015B00070B5094D4FF48064002221462846FFF79C
:1015C00033F80520FEF722FF21462846BDE870408B
:1015D0000122FFF729B80000000C014070B5144645
:1015E0000A46034600210846FFF73EFE0122D102CB
:1015F0000E48FFF719F84FF416452A4621460C48C5
:10160000FFF720FC2A4604F516410948FFF71AFCAB
:101610002A4604F596310648FFF714FC2A4604F5DD
:10162000E131BDE870400248FFF70CBC000C0140FE
:1016300048000020FFF70CF8FFF795FDFFF762FC6C
:10164000FFF790FC4FF4A0752946F020FFF75AFEF3
:1016500041F288340C4AF0212846FFF7BFFF2046AC
:10166000FEF7D4FE094AF0212846FFF7B7FF2046CF
:10167000FEF7CCFE064AF0212846FFF7AFFF2046D2
:10168000FEF7C4FEE6E70000946E02089416000818
:1016900094C604087DAC7DAC7DAC7DAC7DAC7DACEE
:1016A0007DAD75AD75AD75AC75AD75AD75AD758D43
:1016B00075AD75AD75AD75AD6DAD75AD6D8D6D8D72
:1016C0006D8D6D8D6D8D6D8D6D8D6D8D6D8D6D8D4A
:1016D0006D8D6D8D6D8D6D8D6D8D658D6D8D658D4A
:1016E000658D658D658D658D658D658D658D658D6A
:1016F000658D658D656D658D658D658D658D658D7A
:10170000658D658D658D658D658D658D658D658D49
:10171000658D658D658D658D658D658D658D658D39
:101720006D8D658D6D8D6D8D6D8D6D8D6D8D6D8DF1
:101730006D8D6D8D6D8D6D8D6D8D6D8D6D8D6D8DD9
:101740006D8D758D758D758D758D758D758D758D91
:10175000758D756D758D758C758D7D8D7D8D7D8C83
:101760007D8C7D8C7D8C7D8C7D8C7D8C7D8C858C29
:10177000858C858C858C858C858C858C858C858CE1
:1017800085AC8DAC8DAC8DAC8D8C8DAC8DAC8DACB9
:101790008DAC8DAC95AB95AC95AC95AB95AB95AB55
:1017A00095AB95AB9DAB9DAB9DCB9DCB9DCB9DABA9
:1017B0009DCB9DCB9DCBA5CBA5CBA5CBA5CBA5CBC1
:1017C000A5CBA5CBA5CBA5CBADCBADCAADCBADEB5A
:1017D000ADEBADEAADEAADCAADEAB5EAB5EAB5EA58
:1017E000B5EAB5EAB5EAB5EAB5EAB5EABDEABDEAF1
:1017F000BDEABDEABDEABDEABE0ABE0ABE0ABE0A2D
:10180000C5EABE0AC60AC60AC609C60AC60AC60A82
:10181000C60AC609C609C609C609CE09CE09CE0937
:10182000CE09CE09CE09CE09CE09CE09CE29CE29C0
:10183000CE29CE29D629CE29D629D629D629D629C8
:10184000D629D629D629D629D629D629D629D629A0
:10185000D629D629D629D629D629D629D629D62990
:10186000D629D629D629D629D629D629D629D62980
:10187000D629D6297DAC7DAC7DAC7DAC7DAC75AC7C
:1018800075AD75AD75AD75AC75AD75AD75AD758D69
:1018900075AD75AD75AD6DAD6DAD6D8D6D8D6D8DC0
:1018A0006D8D6D8D6D8D6D8D6D8D6D8D6D8D6D8D68
:1018B0006D8D6D8D6D8D6D8D658D658D658D658D78
:1018C000658D658D658D658D658D658D658D658D88
:1018D000658D656D658D658D658D658D658D658D98
:1018E000658D658D658D658D658D658D658D658D68
:1018F000658D658D658D658D658D658D658D658D58
:10190000658D658D658D6D8D6D8D6D8D6D8D6D8D1F
:101910006D8D6D8D6D8D6D8D6D8D6D8D6D8D6D8DF7
:101920006D8D6D8D6D8D758D758D758D758D758DBF
:10193000758D756D758D758D758C758D758D7D8CB1
:101940007D8C7D8C7D8C7D8C7D8C7D8C7D8C7D8C4F
:101950007D8C858C858C858C858C858C858C858C07
:10196000858C8DAC8DAC8DAC8D8C8DAC8DAC8DACF7
:101970008DAC8DAC95AB95AC95AC95AB95AB95AB73
:1019800095AB95AB95AB95AB9DCB9DCB9DCB9DCBB7
:101990009DAB9DCB9DCBA5CBA5CBA5CBA5CBA5CBFF
:1019A000A5CBA5CBA5CBA5CBADCBADCAADCBADEB78
:1019B000ADEBADEAADEAADCAADEAB5EAB5EAB5EA76
:1019C000B5EAB5EAB5EAB5EAB5EAB5EABDEABDEA0F
:1019D000BDEABDEABDEABDEABE0ABE0ABE0ABE0A4B
:1019E000BDEABE0AC60AC60AC609C60AC60AC60AA9
:1019F000C60AC609C609C609CE09CE09CE09CE094E
:101A0000CE09CE09CE09CE09CE09CE09CE29CE29DE
:101A1000CE29CE29D629CE29D629D629D629D629E6
:101A2000D629D629D629D629D629D629D629D629BE
:101A3000D629D629D629D629D629D629D629D629AE
:101A4000D629D629D629D629D629D629D629D6299E
:101A5000D629D6297DAC7DAC7DAC7DAC7DAC7DAD91
:101A600075AD75AD75AC75AD75AD75AD758D75AD87
:101A700075AD75AD75AD75AD6DAD6D8D6D8D6D8DD6
:101A80006D8D6D8D6D8D6D8D6D8D6D8D6D8D6D8D86
:101A90006D8D6D8D6D8D658D6D8D658D658D658D96
:101AA000658D658D658D658D658D658D658D658DA6
:101AB000658D656D658D658D658D658D658D658DB6
:101AC000658D658D658D658D658D658D658D658D86
:101AD000658D658D658D658D658D658D658D658D76
:101AE000658D658D658D6D8D6D8D6D8D6D8D6D8D3E
:101AF0006D8D6D8D6D8D6D8D6D8D6D8D6D8D6D8D16
:101B00006D8D6D8D758D6D8D758D758D758D758DDD
:101B1000758D756D758D758D758C758D7D8D7D8DC6
:101B20007D8C7D8C7D8C7D8C7D8C7D8C7D8C7D8C6D
:101B3000858C858C858C858C858C858C858C858C1D
:101B4000858C85AC8DAC8DAC8DAC8D8C8DAC8DAC1D
:101B50008DAC8DAC95AB95AC95AC95AB95AB95AB91
:101B600095AB95AB95AB9DAB9DCB9DCB9DCB9DCBCD
:101B70009DAB9DCB9DCB9DCB9DCBA5CBA5CBA5CB2D
:101B8000A5CBA5CBA5CBA5CBADCBADCBADCAADCBB6
:101B9000ADEBADEAADEAADEAADCAB5EAB5EAB5EA94
:101BA000B5EAB5EAB5EAB5EAB5EAB5EABDEAB5EA35
:101BB000BDEABDEABDEABDEABE0ABE0ABE0ABE0A69
:101BC000BE0AC5EAC60AC60AC609C60AC60AC60ABF
:101BD000C60AC609C609C609CE09CE09CE09CE096C
:101BE000CE09CE09CE09CE09CE09CE09CE29CE29FD
:101BF000CE29CE29D629CE29D629D629D629D62905
:101C0000D629D629D629D629D629D629D629D629DC
:101C1000D629D629D629D629D629D629D629D629CC
:101C2000D629D629D629D629D629D629D629D629BC
:101C3000D629D6297DAC7DAC7DAC7DAC75AC75ADBF
:101C400075AD75AD75AC75AD75AD758D758D75ADC5
:101C500075AD75AD6DAD6DAD6D8D6D8D6D8D6D8D24
:101C60006D8D6D8D6D8D6D8D6D8D6D8D6D8D6D8DA4
:101C70006D8D6D8D658D6D8D658D658D658D658DBC
:101C8000658D658D658D658D658D658D658D658DC4
:101C9000656D656D658D658D658D658D658D658DF4
:101CA000658D658D658D658D658D658D658D658DA4
:101CB000658D658D658D658D658D656D656D656DF4
:101CC000656D656D658D658D6D8D658D6D8D6D8DAC
:101CD0006D8D6D8D6D8D6D8D6D8D6D8D6D8D6D8D34
:101CE0006D8D6D8D6D8D758D758D758D758D758DFC
:101CF000758D756D758D758D758C758D7D8D758DED
:101D00007D8C7D8C7D8C7D8C7D8C7D8C7D8C7D8C8B
:101D10007D8C7D8C858C858C858C858C858C858C4B
:101D2000858C85AC85AC8DAC8DAC8D8C8DAC8DAC43
:101D30008DAC8DAC8DAB8DAC95AC95AC95AB95ABBE
:101D400095AB95AB95AB9DAB9DAB9DCB9DCB9DCB0B
:101D50009DAB9DCB9DCB9DCBA5CBA5CBA5CBA5CB43
:101D6000A5CBA5CBA5CBA5CBADCBA5CBADCAADCBDC
:101D7000ADEBADEAADEAADEAADCAB5EAB5EAB5EAB2
:101D8000B5EAB5EAB5EAB5EAB5EAB5EAB5EAB5EA5B
:101D9000BDEABDEABDEABDEABE0ABE0ABE0ABE0A87
:101DA000BE0AC5EAC60AC60AC60AC609C60AC60ADD
:101DB000C60AC609C609C609CE09C609CE09CE0992
:101DC000CE09CE09CE09CE09CE09CE09CE29CE291B
:101DD000CE29CE29D629CE29D629D629D629D62923
:101DE000D629D629D629D629D629D629D629D629FB
:101DF000D629D629D629D629D629D629D629D629EB
:101E0000D629D629D629D629D629D629D629D629DA
:101E1000D629D6297DAC7DAC7DAC75AC7DAD75ADDC
:101E200075AD75AC75AD75AD75AD758D75AD75ADC3
:101E300075AD6DAD75AD6D8D6D8D6D8D6D8D6D8D62
:101E40006D8D6D8D6D8D6D8D6D8D6D8D6D8D6D8DC2
:101E50006D8D658D658D658D658D658D658D658DEA
:101E6000658D658D658D658D658D658D658D658DE2
:101E7000656D658D658D658D658D658D658D658DF2
:101E8000658D658D658D658D658D658D658D658DC2
:101E9000658D658D658D656D656D656D656D656D52
:101EA000656D656D656D658D658D6D8D6D8D6D8DEA
:101EB0006D8D6D8D6D8D6D8D6D8D6D8D6D8D6D8D52
:101EC0006D8D6D8D6D8D6D8D6D8D758D758D758D2A
:101ED000758D756D758D758D758D758C758D7D8D0B
:101EE0007D8D7D8C7D8C7D8C7D8C7D8C7D8C7D8CA9
:101EF0007D8C858C858C858C858C858C858C858C62
:101F0000858C85AC8DAC8DAC8DAC8D8C8DAC8DAC59
:101F10008DAC8DAC8DAC95AB95AC95AC95AB95ABD4
:101F200095AB95AB95AB95AB95AB9DCB9DCB9DCB39
:101F30009DCB9DAB9DCB9DCBA5CBA5CBA5CBA5CB61
:101F4000A5CBA5CBA5CBA5CBA5CBA5CBADCAADCB02
:101F5000ADEBADEAADEAADEAADCAADEAADEAB5EAE0
:101F6000B5EAB5EAB5EAB5EAB5EAB5EAB5EABDEA71
:101F7000BDEABDEABDEABDEABDEABE0ABE0ABE0AC6
:101F8000BE0AC5EAC60AC60AC60AC609C60AC60AFB
:101F9000C60AC609C609C609CE09C609CE09CE09B0
:101FA000CE09CE09CE09CE09CE09CE09CE09CE2959
:101FB000CE29CE29D629CE29D629D629D629D62941
:101FC000D629D629D629D629D629D629D629D62919
:101FD000D629D629D629D629D629D629D629D62909
:101FE000D629D629D629D629D629D629D629D629F9
:101FF000D629D6297DAC7DAC7DAC7DAC75AD75ADFB
:1020000075AD75AC75AD75AD75AD758D75AD75ADE1
:1020100075AD75AD6DAD6D8D6D8D6D8D6D8D6D8D80
:102020006D8D6D8D6D8D6D8D6D8D6D8D6D8D6D8DE0
:10203000658D658D658D658D658D658D658D658D10
:10204000658D658D658D658D658D658D658D656D20
:10205000658D658D658D658D658D658D658D658DF0
:10206000658D658D658D658D658D658D658D658DE0
:10207000658D656D656D656D656D656D656D656DB0
:10208000656D656D656D656D658D658D658D6D8D38
:102090006D8D6D8D6D8D6D8D6D8D6D8D6D8D6D8D70
:1020A0006D8D6D8D6D8D6D8D758D758D758D758D40
:1020B000758D756D758D758D758D758C758D758D31
:1020C000758D7D8C7D8C7D8C7D8C7D8C7D8C7D8CCF
:1020D0007D8C858C858C858C858C858C858C858C80
:1020E000858C858C85AC8DAC8DAC8DAC8D8C8DACA0
:1020F0008DAC8DAC8DAC95AB95AC95AC95AB95ABF3
:1021000095AB95AB95AB95AB9DAB9DCB9DCB9DCB4F
:102110009DCB9DAB9DCB9DCBA5CBA5CBA5CBA5CB7F
:10212000A5CBA5CBA5CBA5CBA5CBADCBADCAADCB18
:10213000ADEBADEBADEAADEAADCAADEAB5EAB5EAF5
:10214000B5EAB5EAB5EAB5EAB5EAB5EAB5EABDEA8F
:10215000BDEABDEABDEABDEABDEABE0ABE0ABE0AE4
:10216000BE0AC5EAC60AC60AC60AC609C60AC60A19
:10217000C60AC609C609C609CE09C609CE09CE09CE
:10218000CE09CE09CE09CE09CE09CE09CE09CE2977
:10219000CE29CE29D629CE29D629D629D629D6295F
:1021A000D629D629D629D629D629D629D629D62937
:1021B000D629D629D629D629D629D629D629D62927
:1021C000D629D629D629D629D629D629D629D62917
:1021D000D629D6297DAC7DAC75AC75AC75AD75AD29
:1021E00075AC75AD75AD75AD758D75AD75AD75AD00
:1021F0006DAD6DAD6D8D6D8D6D8D6D8D6D8D6D8DCF
:102200006D8D6D8D6D8D6D8D6D8D6D8D6D8D6D8DFE
:10221000658D658D658D658D658D658D658D658D2E
:10222000658D658D658D658D658D658D656D658D3E
:10223000658D658D658D658D658D658D658D658D0E
:10224000658D658D658D658D658D658D658D658DFE
:10225000656D656D656D656D656D656D656D656DEE
:10226000656D656D656D656D656D658D658D658D7E
:102270006D8D6D8D6D8D6D8D6D8D6D8D6D8D6D8D8E
:102280006D8D6D8D6D8D6D8D6D8D6D8D758D758D6E
:10229000758D756D758D758D758D758D758C758D4F
:1022A0007D8D7D8D7D8C7D8C7D8C7D8C7D8C7D8CE4
:1022B0007D8C7D8C7D8C858C858C858C858C858CAE
:1022C000858C858C85AC85AC8DAC8DAC8D8C8DACC6
:1022D0008DAC8DAC8DAC8DAB95AC95AC95AB95AB19
:1022E00095AB95AB95AB95AB9DAB9DCB9DCB9DCB6E
:1022F0009DCB9DAB9DCB9DCB9DCB9DCBA5CBA5CBAE
:10230000A5CBA5CBA5CBA5CBA5CBADCBADCBADCA36
:10231000ADEBADEBADEAADEAADCAADEAB5EAB5EA13
:10232000B5EAB5EAB5EAB5EAB5EAB5EAB5EABDEAAD
:10233000BDEABDEABDEABDEABDEABE0ABE0ABE0A02
:10234000BE0AC5EAC60AC60AC60AC609C60AC60A37
:10235000C60AC609C609C609C609C609CE09CE09F4
:10236000CE09CE09CE09CE09CE09CE09CE09CE2995
:10237000CE29CE29D629D629CE29D629D629D6297D
:10238000D629D629D629D629D629D629D629D62955
:10239000D629D629D629D629D629D629D629D62945
:1023A000D629D629D629D629D629D629D629D62935
:1023B000D629D6297DAC7DAC7DAC75AD75AD75AD3E
:1023C00075AC75AD75AD75AD758D75AD75AD6DAD26
:1023D0006DAD6DAD6D8D6D8D6D8D6D8D6D8D6D8DED
:1023E0006D8D6D8D6D8D6D8D6D8D658D6D8D658D2D
:1023F000658D658D658D658D658D658D658D658D4D
:10240000658D658D658D658D658D658D656D658D5C
:10241000658D658D658D658D658D658D658D658D2C
:10242000658D658D658D658D658D658D658D656D3C
:10243000656D656D656D656D656D656D656D656D0C
:10244000656D656D656D656D656D656D658D6D8DB4
:10245000658D6D8D6D8D6D8D6D8D6D8D6D8D6D8DB4
:102460006D8D6D8D6D8D6D8D6D8D758D6D8D758D8C
:10247000758D756D758D758D758D758D758C758D6D
:102480007D8D7D8D7D8C7D8C7D8C7D8C7D8C7D8C02
:102490007D8C7D8C858C858C858C858C858C858CC4
:1024A000858C858C85AC8DAC8DAC8DAC8D8C8DACDC
:1024B0008DAC8DAC8DAC8DAB8DAC95AC95AC95AB3E
:1024C00095AB95AB95AB95AB9DAB9DAB9DCB9DCBAC
:1024D0009DCB9DAB9DCB9DCB9DCBA5CBA5CBA5CBC4
:1024E000A5CBA5CBA5CBA5CBA5CBADCBADCBADCA55
:1024F000ADCBADEBADEAADEAADCAADEAB5EAB5EA52
:10250000B5EAB5EAB5EAB5EAB5EAB5EAB5EABDEACB
:10251000B5EABDEABDEABDEABDEABE0ABE0ABE0A28
:10252000BE0AC5EABE0AC60AC60AC609C60AC60A5D
:10253000C60AC60AC609C609C609CE09CE09CE0909
:10254000CE09CE09CE09CE09CE09CE09CE09CE29B3
:10255000CE29CE29CE29D629CE29D629D629D629A3
:10256000D629D629D629D629D629D629D629D62973
:10257000D629D629D629D629D629D629D629D62963
:10258000D629D629D629D629D629D629D629D62953
:10259000D629D6297DAC75AC75AC75AD75AD75AC6D
:1025A00075AC75AD75AD758D75AD75AD75AD75AD3C
:1025B0006DAD6D8D6D8D6D8D6D8D6D8D6D8D6D8D2B
:1025C0006D8D6D8D6D8D6D8D6D8D6D8D658D658D4B
:1025D000658D658D658D658D658D658D658D658D6B
:1025E000658D658D658D658D658D656D658D658D7B
:1025F000658D658D658D658D658D658D658D658D4B
:10260000658D658D658D658D658D658D656D656D7A
:10261000656D656D656D656D656D656D656D656D2A
:10262000656D656D656D656D656D656D658D658DDA
:102630006D8D658D6D8D6D8D6D8D6D8D6D8D6D8DD2
:102640006D8D6D8D6D8D6D8D6D8D6D8D758D758DAA
:10265000756D758D758D758D758D758D758D758C8B
:10266000758D758D7D8C7D8C7D8C7D8C7D8C7D8C30
:102670007D8C7D8C858C858C858C858C858C858CE2
:10268000858C858C858C8DAC8DAC8DAC8DAC8D8C1A
:102690008DAC8DAC8DAC8DAC95AB95AC95AC95AB54
:1026A00095AB95AB95AB95AB95AB9DAB9DCB9DCBD2
:1026B0009DCB9DAB9DCB9DCB9DCBA5CBA5CBA5CBE2
:1026C000A5CBA5CBA5CBA5CBA5CBA5CBA5CBADCA83
:1026D000ADCBADEBADEAADEAADEAADCAB5EAB5EA70
:1026E000B5EAB5EAB5EAB5EAB5EAB5EAB5EAB5EAF2
:1026F000B5EABDEABDEABDEABDEABE0ABE0ABE0A47
:10270000BE0ABDEAC60AC60AC60AC609C60AC60A7B
:10271000C60AC60AC609C609C609CE09CE09CE0927
:10272000CE09CE09CE09CE09CE09CE09CE09CE29D1
:10273000CE29CE29CE29D629CE29D629D629D629C1
:10274000D629D629D629D629D629D629D629D62991
:10275000D629D629D629D629D629D629D629D62981
:10276000D629D629D629D629D629D629D629D62971
:10277000D629D6297DAC7DAC75AD75AD75AD75AC82
:1027800075AD75AD75AD758D75AD75AD6DAD6DAD69
:102790006DAD6D8D6D8D6D8D6D8D6D8D6D8D6D8D49
:1027A0006D8D6D8D6D8D6D8D658D658D658D658D79
:1027B000658D658D658D658D658D658D658D658D89
:1027C000658D658D658D658D656D658D658D658D99
:1027D000658D658D658D658D658D658D658D658D69
:1027E000658D658D658D658D658D656D656D656DB9
:1027F000656D656D656D656D656D656D656D656D49
:10280000656D656D656D656D656D656D658D658DF8
:10281000658D6D8D658D6D8D6D8D6D8D6D8D6D8DF8
:102820006D8D6D8D6D8D6D8D6D8D6D8D6D8D6D8DD8
:10283000756D758D758D758D758D758D758D758CA9
:10284000758D7D8D7D8D7D8C7D8C7D8C7D8C7D8C45
:102850007D8C7D8C7D8C7D8C858C858C858C858C10
:10286000858C858C858C85AC85AC8DAC8DAC8D8C48
:102870008DAC8DAC8DAC8DAC95AB95AC95AC95AB72
:1028800095AB95AB95AB95AB95AB95AB9DCB9DCBF8
:102890009DCB9DCB9DAB9DCB9DCBA5CBA5CBA5CB00
:1028A000A5CBA5CBA5CBA5CBA5CBA5CBADCBADCA99
:1028B000ADCBADEBADEBADEAADEAADCAADEAADEA9D
:1028C000B5EAB5EAB5EAB5EAB5EAB5EAB5EAB5EA10
:1028D000BDEABDEABDEABDEABDEABDEABE0ABE0A7E
:1028E000BE0ABE0AC5EAC60AC60AC60AC609C60A9A
:1028F000C60AC60AC609C609C609CE09CE09CE0946
:10290000CE09CE09CE09CE09CE09CE09CE09CE29EF
:10291000CE29CE29CE29D629CE29D629D629D629DF
:10292000D629D629D629D629D629D629D629D629AF
:10293000D629D629D629D629D629D629D629D6299F
:10294000D629D629D629D629D629D629D629D6298F
:10295000D629D62975AC75AC75AD75AD75AD75ACB0
:1029600075AD75AD758D75AD75AD6DAD75AD6DAD87
:102970006D8D6D8D6D8D6D8D6D8D6D8D6D8D6D8D87
:102980006D8D6D8D6D8D658D658D658D658D658D9F
:10299000658D658D658D658D658D658D658D658DA7
:1029A000658D658D658D658D656D658D658D658DB7
:1029B000658D658D658D658D658D658D658D658D87
:1029C000658D658D658D658D656D656D656D656DF7
:1029D000656D656D656D656D656D656D656D656D67
:1029E000656D656D656D656D656D656D656D658D37
:1029F000658D658D6D8D6D8D6D8D6D8D6D8D6D8D17
:102A00006D8D6D8D6D8D6D8D6D8D6D8D6D8D758DEE
:102A1000756D758D758D758D758D758D758D758CC7
:102A2000758D7D8D758D7D8C7D8C7D8C7D8C7D8C6B
:102A30007D8C7D8C7D8C858C858C858C858C858C26
:102A4000858C858C858C85AC8DAC8DAC8DAC8D8C5E
:102A50008DAC8DAC8DAC8DAC8DAB95AC95AC95AC97
:102A600095AB95AB95AB95AB95AB9DAB9DCB9DCB0E
:102A70009DCB9DCB9DAB9DCB9DCB9DCBA5CBA5CB26
:102A8000A5CBA5CBA5CBA5CBA5CBA5CBADCBADCAB7
:102A9000ADCBADEBADEBADEAADEAADCAADEAB5EAB3
:102AA000B5EAB5EAB5EAB5EAB5EAB5EAB5EAB5EA2E
:102AB000BDEABDEABDEABDEABDEABDEABE0ABE0A9C
:102AC000BE0ABE0AC5EAC60AC60AC60AC609C60AB8
:102AD000C60AC60AC609C609C609CE09C609CE096C
:102AE000CE09CE09CE09CE09CE09CE09CE09CE290E
:102AF000CE29CE29CE29D629CE29D629D629D629FE
:102B0000D629D629D629D629D629D629D629D629CD
:102B1000D629D629D629D629D629D629D629D629BD
:102B2000D629D629D629D629D629D629D629D629AD
:102B3000D629D6297DAC75AD75AD75AD75AC75ADC5
:102B400075AD75AD758D75AD75AD75AD6DAD6DADA5
:102B50006D8D6D8D6D8D6D8D6D8D6D8D6D8D6D8DA5
:102B60006D8D6D8D658D6D8D658D658D658D658DBD
:102B7000658D658D658D658D658D658D658D658DC5
:102B8000658D658D658D656D658D658D658D658DD5
:102B9000658D658D5D8D658D5D8D5D8D5D8D5D8DCD
:102BA0005D8D5D8D5D8D5D6D656D5D6D656D656D5D
:102BB000656D656D656D656D656D656D656D656D85
:102BC000656D656D656D656D656D656D656D658D55
:102BD000658D658D658D658D6D8D6D8D6D8D6D8D45
:102BE0006D8D6D8D6D8D6D8D6D8D6D8D6D8D758D0D
:102BF0006D6D758D758D758D758D758D758D758DED
:102C0000758C758D758D7D8D7D8C7D8C7D8C7D8C91
:102C10007D8C7D8C7D8C858C858C858C858C858C44
:102C2000858C858C858C85AC8DAC8DAC8DAC8D8C7C
:102C30008DAC8DAC8DAC8DAC8DAC8DAB95AC95ACBD
:102C400095AB95AB95AB95AB95AB9DAB9DAB9DCB4C
:102C50009DCB9DCB9DAB9DCB9DCB9DCBA5CBA5CB44
:102C6000A5CBA5CBA5CBA5CBA5CBA5CBADCBADCBD4
:102C7000ADCAADEBADEBADEAADEAADCAADEAB5EAD2
:102C8000B5EAB5EAB5EAB5EAB5EAB5EAB5EAB5EA4C
:102C9000BDEABDEABDEABDEABDEABDEABE0ABE0ABA
:102CA000BE0ABE0AC5EAC60AC60AC60AC609C60AD6
:102CB000C60AC60AC609C609C609CE09C609CE098A
:102CC000CE09CE09CE09CE09CE09CE09CE09CE292C
:102CD000CE29CE29CE29D629CE29D629D629D6291C
:102CE000D629D629D629D629D629D629D629D629EC
:102CF000D629D629D629D629D629D629D629D629DC
:102D0000D629D629D629D629D629D629D629D629CB
:102D1000D629D62975AC75AD75AD75AD75AC75ADEB
:102D200075AD758D75AD75AD6DAD6DAD6DAD6D8DF3
:102D30006D8D6D8D6D8D6D8D6D8D6D8D6D8D6D8DC3
:102D40006D8D658D6D8D658D658D658D658D658DE3
:102D5000658D658D658D658D658D658D658D658DE3
:102D6000658D656D656D658D658D658D658D5D8D1B
:102D70005D8D5D8D658D658D5D8D5D8D5D8D5D8DF3
:102D80005D8D5D8D5D6D656D656D656D5D6D5D6D9B
:102D9000656D656D656D656D656D656D656D656DA3
:102DA000656D656D656D656D656D656D656D656D93
:102DB000658D658D658D6D8D658D6D8D6D8D6D8D63
:102DC0006D8D6D8D6D8D6D8D6D8D6D8D6D8D6D8D33
:102DD0006D6D758D758D758D758D758D758D758D0B
:102DE000758C758D7D8D7D8D7D8C7D8C7D8C7D8CA8
:102DF0007D8C7D8C7D8C7D8C7D8C858C858C858C73
:102E0000858C858C858C85AC85AC85AC8DAC8DAC8A
:102E10008D8C8DAC8DAC8DAC8DAC95AB95AC95ACF3
:102E200095AB95AB95AB95AB95AB9DAB9DAB9DCB6A
:102E30009DCB9DCB9DAB9DCB9DCB9DCB9DCBA5CB6A
:102E4000A5CBA5CBA5CBA5CBA5CBA5CBADCBADCBF2
:102E5000ADCAADCBADEBADEAADEAADCAADEAB5EA10
:102E6000B5EAB5EAB5EAB5EAB5EAB5EAB5EAB5EA6A
:102E7000BDEABDEABDEABDEABDEABDEABE0ABE0AD8
:102E8000BE0ABE0AC5EAC60AC60AC60AC609C60AF4
:102E9000C60AC60AC609C609C609CE09C609CE09A8
:102EA000CE09CE09CE09CE09CE09CE09CE09CE294A
:102EB000CE29CE29CE29D629CE29D629D629D6293A
:102EC000D629D629D629D629D629D629D629D6290A
:102ED000D629D629D629D629D629D629D629D629FA
:102EE000D629D629D629D629D629D629D629D629EA
:102EF000D629D62975AC75AD75AD75AC75AD75AD0A
:102F000075AD758D75AD75AD75AD6DAD6DAD6D8D09
:102F10006D8D6D8D6D8D6D8D6D8D6D8D6D8D6D8DE1
:102F20006D8D6D8D658D658D658D658D658D658D01
:102F3000658D658D658D658D658D658D658D658D01
:102F4000656D658D658D658D658D5D8D5D8D658D21
:102F5000658D5D8D5D8D5D8E5D8E5D8E5D8E5D8E14
:102F60005D6E5D6E5D6E5D6E5D6E5D6D5D6D656D04
:102F70005D6D5D6D656D656D656D656D656D656DD1
:102F8000656D656D656D656D656D656D656D656DB1
:102F9000658D658D658D658D6D8D6D8D6D8D6D8D81
:102FA0006D8D6D8D6D8D6D8D6D8D6D8D6D8D6D8D51
:102FB000756D758D758D758D758D758D758D758D21
:102FC000758D758C758D758D7D8C7D8C7D8C7D8CD6
:102FD0007D8C7D8C7D8C7D8C858C858C858C858C89
:102FE000858C858C858C85AC85AC8DAC8DAC8DACA1
:102FF0008D8C8DAC8DAC8DAC8DAC95AB95AC95AC12
:1030000095AB95AB95AB95AB95AB95AB95AB9DCB98
:103010009DCB9DCB9DAB9DCB9DCB9DCBA5CBA5CB80
:10302000A5CBA5CBA5CBA5CBA5CBA5CBA5CBADCB18
:10303000ADCAADCBADEBADEAADEAADEAADCAB5EA2E
:10304000B5EAB5EAB5EAB5EAB5EAB5EAB5EAB5EA88
:10305000B5EABDEABDEABDEABDEABDEABE0ABE0AFE
:10306000BE0ABE0AC5EABE0AC60AC60AC609C60A1A
:10307000C60AC60AC609C609C609C609C609CE09CE
:10308000CE09CE09CE09CE09CE09CE09CE09CE0988
:10309000CE29CE29CE29D629CE29D629D629D62958
:1030A000D629D629D629D629D629D629D629D62928
:1030B000D629D629D629D629D629D629D629D62918
:1030C000D629D629D629D629D629D629D629D62908
:1030D000D629D62975AC75AD75AD75AC75AD75AD28
:1030E00075AD758D75AD6DAD6DAD6DAD6D8D6D8D58
:1030F0006D8D6D8D6D8D6D8D6D8D6D8D6D8D6D8D00
:103100006D8D658D658D658D658D658D658D658D27
:10311000658D658D658D658D658D658D658D656D3F
:10312000658D658D658D5D8D658D658D5D8D5D8E26
:103130005D8E5D8E5D8E5D8E5D8E5D8E5D8E5D8E37
:103140005D6E5D6E5D6E5D6E5D6E5D6E5D6E5D6E27
:10315000656D656D5D6D656D656D656D656D656DE7
:10316000656D656D656D656D656D656D656D656DCF
:10317000658D658D658D658D658D658D6D8D6D8DAF
:103180006D8D6D8D6D8D6D8D6D8D6D8D6D8D6D6D8F
:103190006D8D6D8D758D758D758D758D758D758D2F
:1031A000758D758C758D7D8D7D8D7D8C7D8C7D8CEB
:1031B0007D8C7D8C7D8C7D8C858C858C858C858CA7
:1031C000858C858C858C85AC85AC8DAC8DAC8DACBF
:1031D0008D8C8DAC8DAC8DAC8DAC8DAB8DAC95AC40
:1031E00095AB95AB95AB95AB95AB95AB9DAB9DCBAF
:1031F0009DCB9DCB9DCB9DAB9DCB9DCBA5CBA5CB9F
:10320000A5CBA5CBA5CBA5CBA5CBA5CBA5CBA5CB3E
:10321000ADCAADCBADEBADEAADEAADEAADCAB5EA4C
:10322000B5EAB5EAB5EAB5EAB5EAB5EAB5EAB5EAA6
:10323000B5EAB5EABDEABDEABDEABDEABE0ABE0A24
:10324000BE0ABE0AC5EABE0AC60AC60AC609C60A38
:10325000C60AC60AC60AC609C609C609CE09CE09E3
:10326000CE09CE09CE09CE09CE09CE09CE09CE09A6
:10327000CE29CE29CE29CE29D629D629D629D62976
:10328000D629D629D629D629D629D629D629D62946
:10329000D629D629D629D629D629D629D629D62936
:1032A000D629D629D629D629D629D629D629D62926
:1032B000D629D62975AD75AD75AD75AC75AD75AD45
:1032C000758D75AD6DAD75AD6DAD6DAD6D8D6D8D76
:1032D0006D8D6D8D6D8D6D8D6D8D6D8D6D8D658D26
:1032E000658D658D658D658D658D658D658D658D4E
:1032F000658D658D658D658D658D656D656D658D7E
:10330000658D5D8D5D8D658D5D8D5D8E5D8E5D8E5A
:103310005D8E5D8E5D8E5D8E5D8E5D8E5D8E5D6E75
:103320005D6E5D6E5D6E5D6E5D6E5D6E5D6E5D6E45
:103330005D6E5D6E656D656D5D6D656D656D656D13
:10334000656D656D656D656D656D656D656D656DED
:10335000658D658D658D658D658D6D8D658D6D8DCD
:103360006D8D6D8D6D8D6D8D6D8D6D8D6D8D6D6DAD
:103370006D8D758D6D8D758D758D758D758D758D4D
:10338000758D758C758D7D8D7D8D7D8C7D8C7D8C09
:103390007D8C7D8C7D8C7D8C7D8C858C858C858CCD
:1033A000858C858C858C85AC85AC8DAC8DAC8DACDD
:1033B0008D8C8DAC8DAC8DAC8DAC8DAB95AC95AC56
:1033C00095AC95AB95AB95AB95AB95AB9DAB9DCBCC
:1033D0009DCB9DCB9DCB9DAB9DCB9DCBA5CBA5CBBD
:1033E000A5CBA5CBA5CBA5CBA5CBA5CBA5CBADCB55
:1033F000ADCAADCBADEBADEBADEAADEAADCAADEA72
:10340000B5EAB5EAB5EAB5EAB5EAB5EAB5EAB5EAC4
:10341000B5EABDEABDEABDEABDEABDEABE0ABE0A3A
:10342000BE0ABE0ABE0ABDEAC60AC60AC609C60A5E
:10343000C60AC60AC60AC609C609C609CE09CE0901
:10344000CE09CE09CE09CE09CE09CE09CE09CE09C4
:10345000CE29CE29CE29CE29D629CE29D629D6299C
:10346000D629D629D629D629D629D629D629D62964
:10347000D629D629D629D629D629D629D629D62954
:10348000D629D629D629D629D629D629D629D62944
:10349000D629D62975AD75AD75AC75AD75AD75AD63
:1034A000758D75AD75AD6DAD6DAD6D8D6D8D6D8DB4
:1034B0006D8D6D8D6D8D6D8D6D8D6D8D658D6D8D44
:1034C000658D658D658D658D658D658D658D658D6C
:1034D000658D658D658D658D658D656D658D658D7C
:1034E0005D8D658D658D5D8E5D8E5D8E5D8E5D8E77
:1034F0005D8E5D8E5D8E5D8E5D8E5D6E5D6E5D6ED4
:103500005D6E5D6E5D6E5D6E5D6E5D6E5D6E5D6E63
:103510005D6E5D6E5D6E5D6E656D5D6D656D656D3F
:10352000656D656D656D656D656D656D656D656D0B
:10353000656D658D658D658D658D658D658D6D8D13
:103540006D8D6D8D6D8D6D8D6D8D6D8D6D8D6D6DCB
:103550006D8D6D8D6D8D758D758D758D758D758D73
:10356000758D758D758C758D758D7D8C7D8C7D8C37
:103570007D8C7D8C7D8C7D8C7D8C7D8C858C858CF3
:10358000858C858C858C85AC85AC85AC8DAC8DAC03
:103590008D8C8DAC8DAC8DAC8DAC8DAC95AB95AC74
:1035A00095AC95AB95AB95AB95AB95AB9DAB9DAB0A
:1035B0009DCB9DCB9DCB9DAB9DCB9DCB9DCB9DCBEB
:1035C000A5CBA5CBA5CBA5CBA5CBA5CBA5CBADCB73
:1035D000ADCAADCBADEBADEBADEAADEAADCAADEA90
:1035E000ADEAB5EAB5EAB5EAB5EAB5EAB5EAB5EAEB
:1035F000B5EABDEABDEABDEABDEABDEABDEABE0A7A
:10360000BE0ABE0ABE0AC5EAC60AC60AC609C60975
:10361000C60AC60AC60AC609C609C609CE09CE091F
:10362000CE09CE09CE09CE09CE09CE09CE09CE09E2
:10363000CE29CE29CE29CE29D629CE29D629D629BA
:10364000D629D629D629D629D629D629D629D62982
:10365000D629D629D629D629D629D629D629D62972
:10366000D629D629D629D629D629D629D629D62962
:10367000D629D62975AD75AD75AC75AD75AD758DA1
:1036800075AD75AD6DAD6DAD6DAD6D8D6D8D6D8DBA
:103690006D8D6D8D6D8D6D8D6D8D6D8D6D8D658D62
:1036A000658D658D658D658D658D658D658D658D8A
:1036B000658D658D658D658D656D658D658D5D8DA2
:1036C0005D8D5D8D5D8E5D8E5D8E5D8E5D8E5D8EA4
:1036D0005D8E5D8E5D8E5D8E5D6E5D6E5D6E5D6E12
:1036E0005D6E5D6E5D6E5D6E5D6E5D6E5D6E5D6E82
:1036F0005D6E5D6E5D6E5D6E5D6E5D6D656D5D6D6D
:10370000656D656D656D656D656D656D656D656D29
:10371000656D658D658D658D658D658D658D658D39
:103720006D8D6D8D6D8D6D8D6D8D6D8D6D8D6D6DE9
:103730006D8D6D8D758D758D758D758D758D758D89
:10374000758D758D758C758D7D8D7D8D7D8C7D8C4C
:103750007D8C7D8C7D8C7D8C7D8C858C858C858C09
:10376000858C858C858C85AC85AC85AC85AC8DAC29
:103770008D8C8DAC8DAC8DAC8DAC8DAC95AB95AC92
:1037800095AC95AB95AB95AB95AB95AB95AB95AB38
:103790009DCB9DCB9DCB9DAB9DCB9DCB9DCBA5CB01
:1037A000A5CBA5CBA5CBA5CBA5CBA5CBA5CBADCB91
:1037B000ADCBADCAADEBADEBADEAADEAADCAADEAAE
:1037C000B5EAB5EAB5EAB5EAB5EAB5EAB5EAB5EA01
:1037D000B5EABDEABDEABDEABDEABDEABDEABE0A98
:1037E000BE0ABE0ABE0AC5EAC60AC60AC60AC60993
:1037F000C60AC60AC60AC609C609C609CE09C60946
:10380000CE09CE09CE09CE09CE09CE09CE09CE0900
:10381000CE29CE29CE29CE29D629CE29D629D629D8
:10382000D629D629D629D629D629D629D629D629A0
:10383000D629D629D629D629D629D629D629D62990
:10384000D629D629D629D629D629D629D629D62980
:10385000D629D62975AD75AD75AC75AD75AD758DBF
:1038600075AD6DAD6DAD6DAD6DAD6D8D6D8D6D8DE0
:103870006D8D6D8D6D8D6D8D6D8D658D658D658D90
:10388000658D658D658D658D658D658D658D658DA8
:10389000658D658D658D656D658D5D8D658D5D8DC8
:1038A0005D8D5D8E5D8E5D8E5D8E5D8E5D8E5D8EC1
:1038B0005D8E5D8E5D6E5D6E5D6E5D6E5D6E5D6E70
:1038C0005D6E5D6E5D6E5D6E5D6E5D6E5D6E5D6EA0
:1038D0005D6E5D6E5D6E5D6E5D6E5D6E5D6D656D8A
:1038E0005D6D656D656D656D656D656D656D656D50
:1038F000656D658D658D658D658D658D658D6D8D50
:103900006D8D6D8D6D8D6D8D6D8D6D8D6D8D6D6D07
:103910006D8D6D8D6D8D6D8D758D758D758D758DB7
:10392000758D758D758C758D7D8D7D8D7D8C7D8C6A
:103930007D8C7D8C7D8C7D8C7D8C858C858C858C27
:10394000858C858C858C85AC85AC85AC8DAC8DAC3F
:103950008DAC8D8C8DAC8DAC8DAC8DAC8DAB95ACB8
:1039600095AC95AB95AB95AB95AB95AB95AB9DAB4E
:103970009DCB9DCB9DCB9DAB9DCB9DCB9DCBA5CB1F
:10398000A5CBA5CBA5CBA5CBA5CBA5CBA5CBADCBAF
:10399000ADCBADCAADCBADEBADEAADEAADCAADEAEC
:1039A000B5EAB5EAB5EAB5EAB5EAB5EAB5EAB5EA1F
:1039B000B5EABDEABDEABDEABDEABDEABDEABE0AB6
:1039C000BE0ABE0ABE0AC5EAC60AC60AC60AC609B1
:1039D000C60AC60AC60AC609C609C609CE09C60964
:1039E000CE09CE09CE09CE09CE09CE09CE09CE091F
:1039F000CE29CE29CE29CE29D629CE29D629D629F7
:103A0000D629D629D629D629D629D629D629D629BE
:103A1000D629D629D629D629D629D629D629D629AE
:103A2000D629D629D629D629D629D629D629D6299E
:103A3000D629D62975AD75AC75AD75AD75AD758DDD
:103A40006DAD75AD6DAD6DAD6D8D6D8D6D8D6D8D1E
:103A50006D8D6D8D6D8D6D8D658D6D8D658D658DAE
:103A6000658D658D658D658D658D658D658D658DC6
:103A7000658D658D656D658D5D8D658D5D8D5D8EED
:103A80005D8E5D8E5D8E5D8E5D8E5D8E5D8E5D6EFE
:103A90005D6E5D6D5D6D5D6D5D6D5D6D5D6D5D6DD5
:103AA0005D6D5D6D5D6D5D6D5D6D5D6D5D6E5D6EC4
:103AB0005D6E5D6E5D6E5D6E5D6E5D6E5D6E5D6EAE
:103AC000656D5D6D656D656D656D656D656D656D6E
:103AD000656D658D658D658D658D658D658D658D76
:103AE000658D6D8D6D8D6D8D6D8D6D8D6D8D6D6D2E
:103AF0006D8D6D8D6D8D758D758D758D758D758DCE
:103B0000758D758D758D758C758D758D7D8C7D8C98
:103B10007D8C7D8C7D8C7D8C7D8C7D8C7D8C858C55
:103B2000858C858C858C85AC85AC85AC8DAC8DAC5D
:103B30008DAC8D8C8DAC8DAC8DAC8DAC8DAB8DACDE
:103B400095AC95AC95AB95AB95AB95AB95AB9DAB6B
:103B50009DCB9DCB9DCB9DCB9DAB9DCB9DCBA5CB3D
:103B6000A5CBA5CBA5CBA5CBA5CBA5CBA5CBA5CBD5
:103B7000A5CBADCAADCBADEBADEAADEAADEAADCA12
:103B8000B5EAB5EAB5EAB5EAB5EAB5EAB5EAB5EA3D
:103B9000B5EABDEABDEABDEABDEABDEABDEABE0AD4
:103BA000BE0ABE0ABE0AC5EAC60AC60AC60AC609CF
:103BB000C60AC60AC60AC609C609C609CE09C60982
:103BC000CE09CE09CE09CE09CE09CE09CE09CE093D
:103BD000CE29CE29CE29CE29D629CE29D629D62915
:103BE000D629D629D629D629D629D629D629D629DD
:103BF000D629D629D629D629D629D629D629D629CD
:103C0000D629D629D629D629D629D629D629D629BC
:103C1000D629D62975AD75AC75AD75AD758D75ADFB
:103C200075AD6DAD6DAD6DAD6D8D6D8D6D8D6D8D3C
:103C30006D8D6D8D6D8D6D8D6D8D658D658D658DCC
:103C4000658D658D658D658D658D658D658D658DE4
:103C5000658D656D658D5D8D658D5D8D5D8E5D8E12
:103C60005D8E5D8E5D8E5D8E5D8E5D6E5D6D5D6D5E
:103C70005D6D5D6E5D6D5D6E5D6E5D6E5D6E5D6EEE
:103C80005D6E5D6E5D6E5D6E5D6E5D6D5D6D5D6DDF
:103C90005D6E5D6E5D6E5D6E5D6E5D6E5D6E5D6ECC
:103CA0005D6E656D5D6D656D656D656D656D656D93
:103CB000656D656D658D658D658D658D658D658DB4
:103CC0006D8D6D8D6D8D6D8D6D8D6D8D6D6D6D8D44
:103CD0006D8D6D8D6D8D758D758D758D758D758DEC
:103CE000758D758D758D758C758D7D8D7D8D7D8CAE
:103CF0007D8C7D8C7D8C7D8C7D8C7D8C858C858C6C
:103D0000858C858C858C85AC85AC85AC85AC85AC8B
:103D10008DAC8D8C8DAC8DAC8DAC8DAC8DAC95ABF4
:103D200095AC95AC95AB95AB95AB95AB95AB9DAB89
:103D30009DCB9DCB9DCB9DCB9DAB9DCB9DCBA5CB5B
:103D4000A5CBA5CBA5CBA5CBA5CBA5CBA5CBA5CBF3
:103D5000A5CBADCAADCBADEBADEAADEAADEAADCA30
:103D6000B5EAB5EAB5EAB5EAB5EAB5EAB5EAB5EA5B
:103D7000B5EABDEAB5EABDEABDEABDEABDEABE0AFA
:103D8000BE0ABE0ABE0AC5EABE0AC60AC60AC609F5
:103D9000C60AC60AC60AC609C609C609CE09C609A0
:103DA000CE09CE09CE09CE09CE09CE09CE09CE095B
:103DB000CE29CE29CE29CE29D629CE29D629D62933
:103DC000D629D629D629D629D629D629D629D629FB
:103DD000D629D629D629D629D629D629D629D629EB
:103DE000D629D629D629D629D629D629D629D629DB
:103DF000D629D62975AC75AD75AD75AD758D6DAD22
:103E00006DAD6DAD6DAD6D8D6D8D6D8D6D8D6D8D82
:103E10006D8D6D8D6D8D658D658D658D658D658DFA
:103E2000658D658D658D658D658D658D658D658D02
:103E3000658D656D5D8D5D8D5D8D5D8E5D8E5D8E3F
:103E40005D8E5D8E5D8E5D6E5D6E5D6D5D6E5D6EBB
:103E50005D6E5D6E5D6E5D6E5D6E5D6E5D6E5D6E0A
:103E60005D6E5D6E5D6E5D6E5D6E5D6E5D6E5D6EFA
:103E70005D6D5D6D5D6E5D6E5D6E5D6E5D6E5D6EEC
:103E80005D6E5D6E656D656D656D656D656D656DB0
:103E9000656D656D658D658D658D658D658D658DD2
:103EA000658D658D6D8D6D8D6D8D6D8D6D6D6D8D72
:103EB0006D8D6D8D6D8D6D8D6D8D758D758D758D1A
:103EC000758D758D758D758D758C758D7D8D7D8CD4
:103ED0007D8C7D8C7D8C7D8C7D8C7D8C858C858C8A
:103EE000858C858C858C85AC85AC85AC85AC8DACA2
:103EF0008DAC8D8C8DAC8DAC8DAC8DAC8DAC95AB13
:103F000095AC95AC95AB95AB95AB95AB95AB9DABA7
:103F10009DAB9DCB9DCB9DCB9DAB9DCB9DCB9DCBA1
:103F20009DCBA5CBA5CBA5CBA5CBA5CBA5CBA5CB19
:103F3000ADCBADCAADCBADEBADEBADEAADEAADCA45
:103F4000B5EAADEAB5EAB5EAB5EAB5EAB5EAB5EA81
:103F5000B5EAB5EAB5EABDEABDEABDEABDEABE0A20
:103F6000BE0ABE0ABE0AC5EABE0AC60AC60AC60913
:103F7000C60AC60AC60AC60AC609C609C609C609C5
:103F8000CE09CE09CE09CE09CE09CE09CE09CE0979
:103F9000CE09CE29CE29CE29D629CE29D629D62971
:103FA000D629D629D629D629D629D629D629D62919
:103FB000D629D629D629D629D629D629D629D62909
:103FC000D629D629D629D629D629D629D629D629F9
:103FD000D629D62975AC75AD75AD75AD758D75AD38
:103FE0006DAD6DAD6DAD6D8D6D8D6D8D6D8D6D8DA1
:103FF0006D8D6D8D658D658D658D658D658D658D21
:10400000658D658D658D658D658D658D658D658D20
:10401000656D5D8D658D5D8D5D8E5D8E5D8E5D8E5C
:104020005D8E5D8E5D6E5D6E5D6D5D6E5D6E5D6EF9
:104030005D6E5D6E5D6E5D6E5D6E5D6E5D6E5D6E28
:104040005D6E5D6E5D6E5D6E5D6E5D6E5D6E5D6E18
:104050005D6E5D6E5D6D5D6E5D6E5D6E5D6E5D6E09
:104060005D6E5D6E5D6D5D6D656D656D656D656DDE
:10407000656D656D658D658D658D658D658D658DF0
:10408000658D6D8D6D8D6D8D6D8D6D8D6D6D6D8D88
:104090006D8D6D8D6D8D6D8D758D758D758D758D30
:1040A000758D758D758D758D758C758D758D7D8CFA
:1040B0007D8C7D8C7D8C7D8C7D8C7D8C7D8C7D8CB8
:1040C000858C858C858C85AC85AC85AC85AC8DACC0
:1040D0008DAC8D8C8DAC8DAC8DAC8DAC8DAC95AB31
:1040E00095AC95AC95AB95AB95AB95AB95AB95ABCE
:1040F0009DAB9DCB9DCB9DCB9DAB9DCB9DCB9DCBC0
:10410000A5CBA5CBA5CBA5CBA5CBA5CBA5CBA5CB2F
:10411000ADCBADCAADCBADEBADEBADEAADEAADCA63
:10412000ADEAADEAB5EAB5EAB5EAB5EAB5EAB5EAA7
:10413000B5EAB5EABDEABDEABDEABDEABDEABE0A36
:10414000BE0ABE0ABE0ABE0ABDEAC60AC60AC60939
:10415000C60AC60AC60AC60AC609C609C609CE09DB
:10416000CE09CE09CE09CE09CE09CE09CE09CE0997
:10417000CE09CE29CE29CE29D629CE29D629D6298F
:10418000D629D629D629D629D629D629D629D62937
:10419000D629D629D629D629D629D629D629D62927
:1041A000D629D629D629D629D629D629D629D62917
:1041B000D629D62975AC75AD75AD758D6DAD75AD5E
:1041C0006DAD6DAD6DAD6D8D6D8D6D8D6D8D6D8DBF
:1041D0006D8D6D8D6D8D658D658D658D658D658D37
:1041E000658D658D658D658D658D658D658D656D5F
:1041F0005D8D658D5D8D5D8E5D8E5D8E5D8E5D8E62
:104200005D8E5D6E5D6D5D6D5D6E5D6E5D6E5D6E38
:104210005D6E5D6E5D6E5D6E5D6E5D6E5D6E5D6E46
:104220005D6E5D6E5D6E5D6E5D6E5D6E5D6E5D6E36
:104230005D6E5D6E5D6E5D6D5D6D5D6E5D6E5D6E28
:104240005D6E5D6E5D6E656E5D6D656D656D656DFA
:10425000656D656D658D658D658D658D658D658D0E
:10426000658D658D658D6D8D6D8D6D8D6D6D6D8DB6
:104270006D8D6D8D6D8D6D8D6D8D6D8D758D758D5E
:10428000758D758D758D758D758C758D7D8D7D8D0F
:104290007D8C7D8C7D8C7D8C7D8C7D8C7D8C858CCE
:1042A000858C858C858C85AC85AC85AC85AC8DACDE
:1042B0008D8C8DAC8DAC8DAC8DAC8DAC8DAC8DAB57
:1042C0008DAC95AC95AC95AB95AB95AB95AB95ABF3
:1042D00095AB9DCB9DCB9DCB9DAB9DAB9DCB9DCB06
:1042E000A5CBA5CBA5CBA5CBA5CBA5CBA5CBA5CB4E
:1042F000ADCBADCBADCAADEBADEBADEAADEAADCA82
:10430000ADEAB5EAB5EAB5EAB5EAB5EAB5EAB5EABD
:10431000B5EAB5EABDEABDEABDEABDEABDEABE0A54
:10432000BE0ABE0ABE0ABE0AC5EAC60AC60AC6094F
:10433000C60AC60AC60AC60AC609C609C609CE09F9
:10434000CE09CE09CE09CE09CE09CE09CE09CE09B5
:10435000CE09CE29CE29CE29CE29D629CE29D629B5
:10436000D629D629D629D629D629D629D629D62955
:10437000D629D629D629D629D629D629D629D62945
:10438000D629D629D629D629D629D629D629D62935
:10439000D629D62975AC75AD75AD758D75AD6DAD7C
:1043A0006DAD6DAD6D8D6D8D6D8D6D8D6D8D6D8DFD
:1043B0006D8D658D658D658D658D658D658D658D65
:1043C000658D658D658D658D658D658D656D5D8D85
:1043D000658D5D8D5D8D5D8E5D8E5D8E5D8E5D8E80
:1043E0005D6E5D6D5D6E5D6E5D6E5D6E5D6E5D6E76
:1043F0005D6E5D6E5D6E5D6E5D6E5D6E5D6E5D6E65
:104400005D6E5D6E5D6E5D6E5D6E5D6E5D6E5D6E54
:104410005D6E5D6E5D6E5D6E5D6D5D6D5D6E5D6E46
:104420005D6E5D6E5D6E5D6E656D5D6D656D656D20
:10443000656D656D658D658D658D658D658D658D2C
:10444000658D658D6D8D6D8D6D8D6D8D6D6D6D8DCC
:104450006D8D6D8D6D8D6D8D6D8D758D758D758D74
:10446000758D758D758D758D758D758C758D7D8D35
:104470007D8C7D8C7D8C7D8C7D8C7D8C7D8C858CEC
:10448000858C858C858C85AC85AC85AC85AC85AC04
:10449000858C8DAC8DAC8DAC8DAC8DAC8DAC8DAC7C
:1044A0008DAB95AC95AC95AB95AB95AB95AB95AB12
:1044B0009DAB9DCB9DCB9DCB9DCB9DAB9DCB9DCBFC
:1044C000A5CBA5CBA5CBA5CBA5CBA5CBA5CBA5CB6C
:1044D000ADCBADCBADCAADCBADEBADEAADEAADCAC0
:1044E000ADEAB5EAB5EAB5EAB5EAB5EAB5EAB5EADC
:1044F000B5EAB5EABDEABDEABDEABDEABDEABDEA94
:10450000BE0ABE0ABE0ABE0AC5EAC60AC60AC60A6C
:10451000C609C60AC60AC60AC609C609C609CE0918
:10452000CE09CE09CE09CE09CE09CE09CE09CE09D3
:10453000CE09CE29CE29CE29CE29D629CE29D629D3
:10454000D629D629D629D629D629D629D629D62973
:10455000D629D629D629D629D629D629D629D62963
:10456000D629D629D629D629D629D629D629D62953
:10457000D629D62975AD75AD75AD758D6DAD6DADA1
:104580006DAD6DAD6D8D6D8D6D8D6D8D6D8D6D8D1B
:104590006D8D6D8D658D658D658D658D658D658D7B
:1045A000658D658D658D658D658D658D5D6D5D8DAB
:1045B0005D8D5D8D5D8E5D8E5D8E5D8E5D8E5D6EC5
:1045C0005D6D5D6E5D6E5D6E5D6E5D6E5D6E5D6E94
:1045D0005D6E5D6E5D6E5D6E5D6E5D6E5D6E5D6E83
:1045E0005D6E5D6E5D6E5D6E5D6E5D6E5D6E5D6E73
:1045F0005D6E5D6E5D6E5D6E5D6E5D6E5D6D5D6E64
:104600005D6E5D6E5D6E5D6E5D6E656D5D6D656D45
:10461000656D656D658D658D658D658D658D658D4A
:10462000658D658D658D658D6D8D6D8D6D6D6D8DFA
:104630006D8D6D8D6D8D6D8D6D8D758D758D758D92
:10464000758D758D758D758D758D758C758D758D5B
:104650007D8C7D8C7D8C7D8C7D8C7D8C7D8C7D8C12
:10466000858C858C85AC85AC85AC85AC85AC85AC02
:104670008D8C8DAC8DAC8DAC8DAC8DAC8DAC8DAC92
:1046800095AB95AC95AC95AB95AB95AB95AB95AB28
:104690009DAB9DCB9DCB9DCB9DCB9DAB9DCB9DCB1A
:1046A000A5CBA5CBA5CBA5CBA5CBA5CBA5CBA5CB8A
:1046B000A5CBA5CBADCAADCBADEBADEAADEAADCAEE
:1046C000ADEAB5EAB5EAB5EAB5EAB5EAB5EAB5EAFA
:1046D000B5EAB5EABDEABDEABDEABDEABDEABDEAB2
:1046E000BE0ABE0ABE0ABE0AC5EAC60AC60AC60A8B
:1046F000C609C60AC60AC60AC609C609C609CE0937
:10470000C609CE09CE09CE09CE09CE09CE09CE09F9
:10471000CE09CE29CE29CE29CE29D629CE29D629F1
:10472000D629D629D629D629D629D629D629D62991
:10473000D629D629D629D629D629D629D629D62981
:10474000D629D629D629D629D629D629D629D62971
:10475000D629D62975AD75AD758D6DAD6DAD6DADC7
:104760006DAD6DAD6D8D6D8D6D8D6D8D6D8D6D8D39
:10477000658D658D658D658D658D658D658D658DA9
:10478000658D658D658D658D658D5D6D658D5D8DC9
:104790005D8D5D8E5D8E5D8E5D8E5D8E5D6E5D6D03
:1047A0005D6E5D6E5D6E5D6E5D6E5D6E5D6E5D6EB1
:1047B0005D6E5D6E5D6E5D6E5D6E5D6E5D6E5D6EA1
:1047C0005D6E5D6E5D6E5D6E5D6E5D6E5D6E5D6E91
:1047D0005D6E5D6E5D6E5D6E5D6E5D6E5D6E5D6D82
:1047E0005D6E5D6E5D6E5D6E5D6E5D6E656D656D63
:1047F000656D656D656D658D658D658D658D658D89
:10480000658D658D658D6D8D6D8D6D8D6D6D6D8D10
:104810006D8D6D8D6D8D6D8D6D8D6D8D6D8D758DC0
:10482000758D758D758D758D758D758C758D7D8D71
:104830007D8C7D8C7D8C7D8C7D8C7D8C7D8C7D8C30
:104840007D8C858C85AC85AC85AC85AC85AC85AC28
:104850008D8C8DAC8DAC8DAC8DAC8DAC8DAC8DACB0
:1048600095AB95AC95AC95AB95AB95AB95AB95AB46
:104870009DAB9DAB9DCB9DCB9DCB9DAB9DCB9DCB58
:104880009DCBA5CBA5CBA5CBA5CBA5CBA5CBA5CBB0
:10489000A5CBADCBADCAADCBADEBADEAADEAADCA04
:1048A000ADEAB5EAB5EAB5EAB5EAB5EAB5EAB5EA18
:1048B000B5EAB5EABDEABDEABDEABDEABDEABDEAD0
:1048C000BE0ABE0ABE0ABE0AC5EAC60AC60AC60AA9
:1048D000C609C60AC60AC60AC609C609C609CE0955
:1048E000C609CE09CE09CE09CE09CE09CE09CE0918
:1048F000CE09CE29CE29CE29CE29D629CE29D62910
:10490000D629D629D629D629D629D629D629D629AF
:10491000D629D629D629D629D629D629D629D6299F
:10492000D629D629D629D629D629D629D629D6298F
:10493000D629D62975AD75AD6D8D75AD6DAD6DADE5
:104940006DAD6D8D6D8D6D8D6D8D6D8D6D8D658D7F
:104950006D8D658D658D658D658D658D658D658DBF
:10496000658D658D658D658D5D6D656D5D8D5D8D0F
:104970005D8E5D8E5D8E5D8E5D8E5D6E5D6D5D6E40
:104980005D6E5D6E5D6E5D6E5D6E5D6E5D6E5D6ECF
:104990005D6E5D6E5D6E5D6E5D6E5D6E5D6E5D6EBF
:1049A0005D6E5D6E5D6E5D6E5D6E5D6E5D6E5D6EAF
:1049B0005D6E5D6E5D6E5D6E5D6E5D6E5D6E5D6E9F
:1049C0005D6D5D6E5D6E5D6E5D6E5D6E5D6E5D6D91
:1049D000656D656D656D658D658D658D658D658DA7
:1049E000658D658D658D658D658D6D8D6D6D6D8D3F
:1049F0006D8D6D8D6D8D6D8D6D8D6D8D758D758DD7
:104A0000758D758D758D758D758D758C758D7D8D8F
:104A10007D8D7D8C7D8C7D8C7D8C7D8C7D8C7D8C4D
:104A2000858C858C85AC85AC85AC85AC85AC85AC3E
:104A30008D8C8DAC8DAC8DAC8DAC8DAC8DAC8DACCE
:104A400095AB95AC95AC95AB95AB95AB95AB95AB64
:104A50009DAB9DAB9DCB9DCB9DCB9DAB9DCB9DCB76
:104A60009DCBA5CBA5CBA5CBA5CBA5CBA5CBA5CBCE
:104A7000A5CBADCBADCAADCBADEBADEBADEAADEA01
:104A8000ADCAB5EAADEAB5EAB5EAB5EAB5EAB5EA5E
:104A9000B5EAB5EABDEAB5EABDEABDEABDEABDEAF6
:104AA000BE0ABE0ABE0ABE0AC5EAC60AC60AC60AC7
:104AB000C609C60AC60AC60AC609C609C609CE0973
:104AC000C609CE09CE09CE09CE09CE09CE09CE0936
:104AD000CE09CE29CE29CE29CE29D629CE29D6292E
:104AE000D629D629D629D629D629D629D629D629CE
:104AF000D629D629D629D629D629D629D629D629BE
:104B0000D629D629D629D629D629D629D629D629AD
:104B1000D629D62975AD75AD758D6DAD6DAD6DAD03
:104B20006DAD6D8D6D8D6D8D6D8D6D8D6D8D6D8D95
:104B3000658D658D658D658D658D658D658D658DE5
:104B4000658D658D658D658D656D5D8D5D8D5D8D0D
:104B50005D8E5D8E5D8E5D8E5D6E5D6D5D6E5D6E7E
:104B60005D6E5D6E5D6E5D6E5D6E5D6E5D6E5D6EED
:104B70005D6E5D6E5D6E5D6E5D6E5D6E5D6E5D6EDD
:104B80005D6E5D6E5D6E5D6E5D6E5D6E5D6E5D6ECD
:104B90005D6E5D6E5D6E5D6E5D6E5D6E5D6E5D6EBD
:104BA0005D6E5D6D5D6E5D6E5D6E5D6E5D6E656DA7
:104BB0005D6D656D656D658D658D658D658D658DCD
:104BC000658D658D658D658D6D8D6D8D6D6D6D8D55
:104BD0006D8D6D8D6D8D6D8D6D8D6D8D758D758DF5
:104BE000758D758D758D758D758D758D758C7D8DAE
:104BF000758D7D8C7D8C7D8C7D8C7D8C7D8C7D8C74
:104C0000858C858C85AC85AC85AC85AC85AC85AC5C
:104C1000858C8DAC8DAC8DAC8DAC8DAC8DAC8DACF4
:104C20008DAB8DAC95AC95AB95AB95AB95AB95AB92
:104C300095AB95AB9DCB9DCB9DCB9DAB9DCB9DCBA4
:104C40009DCB9DCBA5CBA5CBA5CBA5CBA5CBA5CBF4
:104C5000A5CBADCBADCAADCBADEBADEBADEAADEA1F
:104C6000ADCAADEAADEAB5EAB5EAB5EAB5EAB5EA84
:104C7000B5EAB5EAB5EAB5EABDEABDEABDEABDEA1C
:104C8000BE0ABE0ABE0ABE0AC5EAC60AC60AC60AE5
:104C9000C609C60AC60AC60AC609C609C609CE0991
:104CA000C609CE09CE09CE09CE09CE09CE09CE0954
:104CB000CE09CE29CE29CE29CE29D629CE29D6294C
:104CC000D629D629D629D629D629D629D629D629EC
:104CD000D629D629D629D629D629D629D629D629DC
:104CE000D629D629D629D629D629D629D629D629CC
:104CF000D629D62975AD758D6DAD6DAD6DAD6DAD2A
:104D00006D8D6D8D6D8D6D8D6D8D6D8D658D658DE3
:104D1000658D658D658D658D658D658D658D658D03
:104D2000658D658D658D5D6D5D8D5D8D5D8D5D8E3A
:104D30005D8E5D8E5D8E5D6E5D6D5D6E5D6E5D6EBC
:104D40005D6E5D6E5D6E5D6E5D6E5D6E5D6E5D6E0B
:104D50005D6E5D6E5D6E5D6E5D6E556E556E5D6E0B
:104D60005D6E5D6E5D6E5D6E5D6E5D6E5D6E5D6EEB
:104D70005D6E5D6E5D6E5D6E5D6E5D6E5D6E5D6EDB
:104D80005D6E5D6E5D6D5D6E5D6E5D6E5D6E5D6ECC
:104D9000656D656D656D658D658D658D658D658DE3
:104DA000658D658D658D658D658D6D8D6D6D6D8D7B
:104DB0006D8D6D8D6D8D6D8D6D8D6D8D6D8D6D8D23
:104DC000758D758D758D758D758D758D758C758DD4
:104DD0007D8D7D8C7D8C7D8C7D8C7D8C7D8C7D8C8A
:104DE000858C858C85AC85AC85AC85AC85AC85AC7B
:104DF000858C85AC8DAC8DAC8DAC8DAC8DAC8DAC1B
:104E00008DAB95AC95AC95AC95AB95AB95AB95ABA7
:104E100095AB9DAB9DCB9DCB9DCB9DAB9DCB9DCBBA
:104E20009DCBA5CBA5CBA5CBA5CBA5CBA5CBA5CB0A
:104E3000A5CBADCBADCBADCAADEBADEBADEAADEA3D
:104E4000ADCAADEAB5EAB5EAB5EAB5EAB5EAB5EA9A
:104E5000B5EAB5EAB5EABDEABDEABDEABDEABDEA32
:104E6000BE0ABE0ABE0ABE0ABDEABE0AC60AC60A13
:104E7000C609C60AC60AC60AC609C609C609CE09AF
:104E8000C609CE09CE09CE09CE09CE09CE09CE0972
:104E9000CE09CE09CE29CE29CE29D629CE29D6298A
:104EA000D629D629D629D629D629D629D629D6290A
:104EB000D629D629D629D629D629D629D629D629FA
:104EC000D629D629D629D629D629D629D629D629EA
:104ED000D629D62975AD6D8D6DAD6DAD6DAD6DAD50
:104EE0006D8D6D8D6D8D6D8D6D8D6D8D6D8D658DFA
:104EF000658D658D658D658D658D658D658D658D22
:104F0000658D658D5D8D656D5D8D5D8D5D8E5D8E57
:104F10005D8E5D8E5D8E5D6D5D6E5D6E5D6E5D6EDA
:104F20005D6E5D6E5D6E5D6E5D6E5D6E5D6E5D6E29
:104F3000556E556E5D6E5D6E5D6E5D6E5D6E5D6E29
:104F40005D6E5D6E556E556E5D6E5D6E5D6E5D6E19
:104F50005D6E5D6E5D6E5D6E5D6E5D6E5D6E5D6EF9
:104F60005D6E5D6E5D6E5D6D5D6E5D6E5D6E5D6EEA
:104F70005D6D5D6D656D658D658D658D658D658D11
:104F8000658D658D658D658D658D658D6D6D6D8DA1
:104F90006D8D6D8D6D8D6D8D6D8D6D8D6D8D758D39
:104FA000758D758D758D758D758D758D758C758DF2
:104FB0007D8D7D8D7D8C7D8C7D8C7D8C7D8C7D8CA7
:104FC0007D8C7DAC85AC85AC85AC85AC85AC85AC89
:104FD000858C8DAC8DAC8DAC8DAC8DAC8DAC8DAC31
:104FE0008DAC95AB95AC95AC95AB95AB95AB95ABC6
:104FF00095AB9DAB9DCB9DCB9DCB9DCB9DAB9DCBD9
:105000009DCBA5CBA5CBA5CBA5CBA5CBA5CBA5CB28
:10501000A5CBADCBADCBADCAADCBADEBADEAADEA7B
:10502000ADCAADEAB5EAB5EAB5EAB5EAB5EAB5EAB8
:10503000B5EAB5EAB5EABDEABDEABDEABDEABDEA50
:10504000BE0ABE0ABE0ABE0ABDEAC60AC60AC60A29
:10505000C609C60AC60AC60AC60AC609C609C609D4
:10506000C609CE09CE09CE09CE09CE09CE09CE0990
:10507000CE09CE09CE29CE29CE29D629CE29D629A8
:10508000D629D629D629D629D629D629D629D62928
:10509000D629D629D629D629D629D629D629D62918
:1050A000D629D629D629D629D629D629D629D62908
:1050B000D629D62975AD758D6DAD6DAD6DAD6DAD66
:1050C0006D8D6D8D6D8D6D8D6D8D658D658D658D28
:1050D000658D658D658D658D658D658D658D658D40
:1050E000658D5D8D656D5D8D5D8D5D8D5D8E5D8E7E
:1050F0005D8E5D8E5D6E5D6D5D6E5D6E5D6E5D6E19
:105100005D6E5D6E5D6E5D6E5D6E556E556E5D6E57
:105110005D6E5D6E556E556E556E556E556E556E67
:10512000556E556E5D6E5D6E5D6E556E556E5D6E47
:105130005D6E5D6E5D6E5D6E5D6E5D6E5D6E5D6E17
:105140005D6E5D6E5D6E5D6D5D6E5D6E5D6E5D6E08
:105150005D6E656D5D6D658D658D658D658D658D2E
:10516000658D658D658D658D658D6D8D6D6D6D8DB7
:105170006D8D6D8D6D8D6D8D6D8D6D8D6D8D758D57
:10518000758D758D758D758D758D758D758D758C10
:105190007D8D7D8D7D8C7D8C7D8C7D8C7D8C7D8CC5
:1051A0007D8C85AC85AC85AC85AC85AC85AC858CBF
:1051B00085AC8DAC8DAC8DAC8DAC8DAC8DAC8DAC2F
:1051C0008DAC95AB95AC95AC95AB95AB95AB95ABE4
:1051D00095AB9DAB9DCB9DCB9DCB9DCB9DAB9DCBF7
:1051E0009DCBA5CBA5CBA5CBA5CBA5CBA5CBA5CB47
:1051F000A5CBA5CBADCBADCAADCBADEBADEAADEAA2
:10520000ADCAADEAB5EAB5EAB5EAB5EAB5EAB5EAD6
:10521000B5EAB5EAB5EABDEABDEABDEABDEABDEA6E
:10522000BE0ABE0ABE0ABE0ABE0AC5EAC60AC60A47
:10523000C609C60AC60AC60AC60AC609C609C609F2
:10524000CE09CE09CE09CE09CE09CE09CE09CE09A6
:10525000CE09CE09CE29CE29CE29D629CE29D629C6
:10526000D629D629D629D629D629D629D629D62946
:10527000D629D629D629D629D629D629D629D62936
:10528000D629D629D629D629D629D629D629D62926
:10529000D629D629758D6DAD6DAD6DAD6DAD6D8DAC
:1052A0006D8D6D8D6D8D6D8D6D8D6D8D658D658D3E
:1052B000658D658D658D658D658D658D658D658D5E
:1052C000658D5D8D5D6D5D8D5D8D5D8E5D8E5D8EA3
:1052D0005D8E5D6E5D6D5D6E5D6E5D6E5D6E5D6E57
:1052E0005D6E5D6E5D6E556E556E5D6E5D6E556E7E
:1052F000556E556E556E556E556E556E556E556E96
:10530000556E556E556E556E556E5D6E5D6E556E75
:10531000556E5D6E5D6E5D6E5D6E5D6E5D6E5D6E3D
:105320005D6E5D6E5D6E5D6E5D6D5D6E5D6E5D6E26
:105330005D6E5D6E5D6D656D658D658D658D658D73
:10534000658D658D658D658D658D658D656D6D8DE5
:105350006D8D6D8D6D8D6D8D6D8D6D8D6D8D6D8D7D
:105360006D8D758D758D758D758D758D758D758C36
:10537000758D758D7D8C7D8C7D8C7D8C7D8C7D8CF3
:105380007D8C85AC85AC85AC85AC85AC85AC858CDD
:1053900085AC8DAC8DAC8DAC8DAC8DAC8DAC8DAC4D
:1053A0008DAC8DAB95AC95AC95AB95AB95AB95AB0A
:1053B00095AB9DAB9DCB9DCB9DCB9DCB9DAB9DCB15
:1053C0009DCBA5CBA5CBA5CBA5CBA5CBA5CBA5CB65
:1053D000A5CBA5CBA5CBADCAADCBADEBADEAADEAC8
:1053E000ADCAADEAB5EAB5EAB5EAB5EAB5EAB5EAF5
:1053F000B5EAB5EAB5EABDEABDEABDEABDEABDEA8D
:10540000BE0ABE0ABE0ABE0ABE0AC5EAC60AC60A65
:10541000C60AC609C60AC60AC60AC609C609C60910
:10542000CE09CE09CE09CE09CE09CE09CE09CE09C4
:10543000CE09CE09CE29CE29CE29D629D629CE29E4
:10544000D629D629D629D629D629D629D629D62964
:10545000D629D629D629D629D629D629D629D62954
:10546000D629D629D629D629D629D629D629D62944
:10547000D629D62975AD6DAD6DAD6DAD6DAD6D8DAA
:105480006D8D6D8D6D8D6D8D658D658D658D658D6C
:10549000658D658D658D658D658D658D658D658D7C
:1054A0005D8D5D6D5D8D5D8D5D8D5D8E5D8E5D8EC9
:1054B0005D6E5D6D5D6E5D6E5D6E5D6E5D6E5D6E95
:1054C0005D6E5D6E556E5D6E556E556E556E556EAC
:1054D000556E556E556E556E556E556E556E556EB4
:1054E000556E556E556E556E556E556E556E556EA4
:1054F0005D6E556E5D6E5D6E5D6E5D6E5D6E5D6E5C
:105500005D6E5D6E5D6E5D6E5D6E5D6D5D6E5D6E44
:105510005D6E5D6E656D5D6D658D658D658D658D91
:10552000658D658D658D658D658D658D6D6D6D8DFB
:105530006D8D6D8D6D8D6D8D6D8D6D8D6D8D6D8D9B
:10554000758D758D758D758D758D758D758D758C4C
:10555000758D7D8D7D8C7D8C7D8C7D8C7D8C7D8C09
:105560007DAC85AC85AC85AC85AC85AC85AC858CDB
:1055700085AC85AC8DAC8DAC8DAC8DAC8DAC8DAC73
:105580008DAC8DAB95AC95AC95AB95AB95AB95AB28
:1055900095AB95AB9DCB9DCB9DCB9DCB9DAB9DCB3B
:1055A0009DCB9DCBA5CBA5CBA5CBA5CBA5CBA5CB8B
:1055B000A5CBA5CBADCBADCAADCBADEBADEAADEADE
:1055C000ADEAADCAB5EAB5EAB5EAB5EAB5EAB5EA13
:1055D000B5EAB5EAB5EABDEABDEABDEABDEABDEAAB
:1055E000BE0ABE0ABE0ABE0ABE0AC5EAC60AC60A84
:1055F000C60AC609C60AC60AC60AC609C609C6092F
:10560000CE09CE09CE09CE09CE09CE09CE09CE09E2
:10561000CE09CE09CE29CE29CE29D629D629CE2902
:10562000D629D629D629D629D629D629D629D62982
:10563000D629D629D629D629D629D629D629D62972
:10564000D629D629D629D629D629D629D629D62962
:10565000D629D6296DAD6DAD6DAD6DAD6DAD6D8DD0
:105660006D8D6D8D6D8D6D8D6D8D658D658D658D82
:10567000658D658D658D658D658D658D658D658D9A
:10568000658D5D6D5D8D5D8D5D8E5D8E5D8E5D8EDE
:105690005D6D5D6E5D6E5D6E5D6E5D6E5D6E5D6EB3
:1056A0005D6E556E5D6E556E556E556E556E556ED2
:1056B000556E556E556E556E556E556E556E556ED2
:1056C000556E556E556E556E556E556E556E556EC2
:1056D000556E5D6E556E5D6E5D6E5D6E5D6E5D6E82
:1056E0005D6E5D6E5D6E5D6E5D6E5D6E5D6D5D6E63
:1056F0005D6E5D6E5D6E5D6D658D658D658D658DB7
:10570000658D658D658D658D658D656D6D8D658D21
:105710006D8D6D8D6D8D6D8D6D8D6D8D6D8D6D8DB9
:10572000758D758D758D758D758D758D758D758C6A
:10573000758D7D8D7D8D7D8C7D8C7D8C7D8C7D8C26
:105740007DAC7DAC7DAC85AC85AC85AC858C85AC09
:1057500085AC85AC85AC8DAC8DAC8DAC8DAC8DAC99
:105760008DAC8DAB8DAC95AC95AB95AB95AB95AB4E
:1057700095AB95AB95CB9DCB9DCB9DCB9DAB9DCB61
:105780009DCB9DCB9DCBA5CBA5CBA5CBA5CBA5CBB1
:10579000A5CBA5CBADCBADCAADCBADEBADEAADEAFC
:1057A000ADEAADCAB5EAB5EAB5EAB5EAB5EAB5EA31
:1057B000B5EAB5EAB5EABDEABDEABDEABDEABDEAC9
:1057C000BDEABE0ABE0ABE0ABE0AC5EAC60AC60AC3
:1057D000C60AC609C60AC60AC60AC609C609C6094D
:1057E000CE09CE09CE09CE09CE09CE09CE09CE0901
:1057F000CE09CE09CE29CE29CE29CE29D629CE2929
:10580000D629D629D629D629D629D629D629D629A0
:10581000D629D629D629D629D629D629D629D62990
:10582000D629D629D629D629D629D629D629D62980
:10583000D629D6296DAD6DAD6DAD6DAD6DAD6D8DEE
:105840006D8D6D8D6D8D658D658D658D658D658DB0
:10585000658D658D658D658D658D658D658D5D8DC0
:105860005D6D5D6D5D8D5D8D5D8E5D8E5D8E5D6E44
:105870005D6D5D6E5D6E5D6E5D6E5D6E5D6E556ED9
:105880005D6E556E556E556E556E556E556E556EF8
:10589000556E556E556E556E556E556E556E556EF0
:1058A000556E556E556E556E556E556E556E556EE0
:1058B000556E556E5D6E556E556E5D6E5D6E5D6EB0
:1058C0005D6E5D6E5D6E5D6E5D6E5D6E5D6D5D6E81
:1058D0005D6E5D6E5D6E656D5D8D658D658D658DD5
:1058E000658D658D658D658D658D656D658D658D48
:1058F0006D8D6D8D6D8D6D8D6D8D6D8D6D8D6D8DD8
:105900006D8D6D8D758D758D758D758D758D758D97
:10591000758C7D8D7D8D7D8C7D8C7D8C7D8C7D8C45
:105920007DAC7DAC85AC85AC85AC85AC858C85AC1F
:1059300085AC85AC8DAC8DAC8DAC8DAC8DAC8DACAF
:105940008DAC8DAC95AB95AC95AC95AB95AB95AB63
:1059500095AB95AB9DCB9DCB9DCB9DCB9DAB9DCB77
:105960009DCB9DCBA5CBA5CBA5CBA5CBA5CBA5CBC7
:10597000A5CBA5CBADCBADCAADCBADEBADEBADEA19
:10598000ADEAADCAADEAB5EAB5EAB5EAB5EAB5EA57
:10599000B5EAB5EAB5EABDEABDEABDEABDEABDEAE7
:1059A000BDEABE0ABE0ABE0ABE0AC5EAC60AC60AE1
:1059B000C60AC609C60AC60AC60AC609C609C6096B
:1059C000CE09C609CE09CE09CE09CE09CE09CE0927
:1059D000CE09CE09CE29CE29CE29CE29D629CE2947
:1059E000D629D629D629D629D629D629D629D629BF
:1059F000D629D629D629D629D629D629D629D629AF
:105A0000D629D629D629D629D629D629D629D6299E
:105A1000D629D6296DAD6DAD6DAD6DAD6D8D6D8D2C
:105A20006D8D6D8D6D8D6D8D658D658D658D658DC6
:105A3000658D658D658D658D658D658D5D8D658DDE
:105A40005D6D5D8D5D8D5D8E5D8E5D8E5D8E5D6D42
:105A50005D6E5D6E5D6E5D6E5D6E5D6E556E5D6EF6
:105A6000556E556E556E556E556E556E556E556E1E
:105A7000556E556E556E556E556E556E556E556E0E
:105A8000556E556E556E556E556E556E556E556EFE
:105A9000556E556E556E5D6E5D6E556E5D6E5D6ECE
:105AA0005D6E5D6E5D6E5D6E5D6E5D6E5D6E5D6D9F
:105AB0005D6E5D6E5D6E5D6E658D658D658D658DF2
:105AC000658D658D658D658D658D656D658D6D8D5E
:105AD0006D8D6D8D6D8D6D8D6D8D6D8D6D8D6D8DF6
